Component: ARM Compiler 5.06 update 6 (build 750) Tool: armlink [4d35ed]

==============================================================================

Section Cross References

    main.o(i.SystemClock_Config) refers to stm32f4xx_hal_rcc.o(i.HAL_RCC_OscConfig) for HAL_RCC_OscConfig
    main.o(i.SystemClock_Config) refers to stm32f4xx_hal_rcc.o(i.HAL_RCC_ClockConfig) for HAL_RCC_ClockConfig
    main.o(i.SystemClock_Config) refers to stm32f4xx_hal_rcc.o(i.HAL_RCC_GetHCLKFreq) for HAL_RCC_GetHCLKFreq
    main.o(i.SystemClock_Config) refers to stm32f4xx_hal_cortex.o(i.HAL_SYSTICK_Config) for HAL_SYSTICK_Config
    main.o(i.SystemClock_Config) refers to stm32f4xx_hal_cortex.o(i.HAL_SYSTICK_CLKSourceConfig) for HAL_SYSTICK_CLKSourceConfig
    main.o(i.SystemClock_Config) refers to stm32f4xx_hal_cortex.o(i.HAL_NVIC_SetPriority) for HAL_NVIC_SetPriority
    main.o(i.main) refers to stm32f4xx_hal.o(i.HAL_Init) for HAL_Init
    main.o(i.main) refers to main.o(i.SystemClock_Config) for SystemClock_Config
    main.o(i.main) refers to gpio.o(i.MX_GPIO_Init) for MX_GPIO_Init
    main.o(i.main) refers to tim.o(i.MX_TIM2_Init) for MX_TIM2_Init
    main.o(i.main) refers to tim.o(i.MX_TIM3_Init) for MX_TIM3_Init
    main.o(i.main) refers to tim.o(i.MX_TIM9_Init) for MX_TIM9_Init
    main.o(i.main) refers to tim.o(i.MX_TIM14_Init) for MX_TIM14_Init
    main.o(i.main) refers to usart.o(i.MX_USART2_UART_Init) for MX_USART2_UART_Init
    main.o(i.main) refers to tim.o(i.MX_TIM6_Init) for MX_TIM6_Init
    main.o(i.main) refers to tim.o(i.MX_TIM7_Init) for MX_TIM7_Init
    gpio.o(i.MX_GPIO_Init) refers to stm32f4xx_hal_gpio.o(i.HAL_GPIO_WritePin) for HAL_GPIO_WritePin
    gpio.o(i.MX_GPIO_Init) refers to stm32f4xx_hal_gpio.o(i.HAL_GPIO_Init) for HAL_GPIO_Init
==============================================================================

Removing Unused input sections from the image.

    Removing main.o(.rev16_text), (4 bytes).
    Removing main.o(.revsh_text), (4 bytes).
    Removing main.o(.rrx_text), (6 bytes).
    Removing gpio.o(.rev16_text), (4 bytes).
    Removing gpio.o(.revsh_text), (4 bytes).
    Removing gpio.o(.rrx_text), (6 bytes).
    Removing tim.o(.rev16_text), (4 bytes).
    Removing tim.o(.revsh_text), (4 bytes).
    Removing tim.o(.rrx_text), (6 bytes).
    Removing tim.o(i.HAL_TIM_Base_MspDeInit), (188 bytes).
    Removing usart.o(.rev16_text), (4 bytes).
    Removing usart.o(.revsh_text), (4 bytes).
    Removing usart.o(.rrx_text), (6 bytes).
    Removing usart.o(i.HAL_UART_MspDeInit), (184 bytes).
    Removing stm32f4xx_it.o(.rev16_text), (4 bytes).
    Removing stm32f4xx_it.o(.revsh_text), (4 bytes).
    Removing stm32f4xx_it.o(.rrx_text), (6 bytes).
    Removing stm32f4xx_hal_msp.o(.rev16_text), (4 bytes).
==============================================================================

Image Symbol Table

    Local Symbols

    Symbol Name                              Value     Ov Type        Size  Object(Section)

    ../Drivers/STM32F4xx_HAL_Driver/Src/stm32f4xx_hal.c 0x00000000   Number         0  stm32f4xx_hal.o ABSOLUTE
    ../Drivers/STM32F4xx_HAL_Driver/Src/stm32f4xx_hal_cortex.c 0x00000000   Number         0  stm32f4xx_hal_cortex.o ABSOLUTE
    ../Drivers/STM32F4xx_HAL_Driver/Src/stm32f4xx_hal_dma.c 0x00000000   Number         0  stm32f4xx_hal_dma.o ABSOLUTE
    ../Drivers/STM32F4xx_HAL_Driver/Src/stm32f4xx_hal_dma_ex.c 0x00000000   Number         0  stm32f4xx_hal_dma_ex.o ABSOLUTE
    ../Drivers/STM32F4xx_HAL_Driver/Src/stm32f4xx_hal_flash.c 0x00000000   Number         0  stm32f4xx_hal_flash.o ABSOLUTE
    ../Drivers/STM32F4xx_HAL_Driver/Src/stm32f4xx_hal_flash_ex.c 0x00000000   Number         0  stm32f4xx_hal_flash_ex.o ABSOLUTE
    ../Drivers/STM32F4xx_HAL_Driver/Src/stm32f4xx_hal_flash_ramfunc.c 0x00000000   Number         0  stm32f4xx_hal_flash_ramfunc.o ABSOLUTE
    ../Drivers/STM32F4xx_HAL_Driver/Src/stm32f4xx_hal_gpio.c 0x00000000   Number         0  stm32f4xx_hal_gpio.o ABSOLUTE
    ../Drivers/STM32F4xx_HAL_Driver/Src/stm32f4xx_hal_pwr.c 0x00000000   Number         0  stm32f4xx_hal_pwr.o ABSOLUTE
    ../Drivers/STM32F4xx_HAL_Driver/Src/stm32f4xx_hal_pwr_ex.c 0x00000000   Number         0  stm32f4xx_hal_pwr_ex.o ABSOLUTE
    ../Drivers/STM32F4xx_HAL_Driver/Src/stm32f4xx_hal_rcc.c 0x00000000   Number         0  stm32f4xx_hal_rcc.o ABSOLUTE
    ../Drivers/STM32F4xx_HAL_Driver/Src/stm32f4xx_hal_rcc_ex.c 0x00000000   Number         0  stm32f4xx_hal_rcc_ex.o ABSOLUTE
    ../Drivers/STM32F4xx_HAL_Driver/Src/stm32f4xx_hal_tim.c 0x00000000   Number         0  stm32f4xx_hal_tim.o ABSOLUTE
    ../Drivers/STM32F4xx_HAL_Driver/Src/stm32f4xx_hal_tim_ex.c 0x00000000   Number         0  stm32f4xx_hal_tim_ex.o ABSOLUTE
    ../Src/gpio.c                            0x00000000   Number         0  gpio.o ABSOLUTE
    ../Src/main.c                            0x00000000   Number         0  main.o ABSOLUTE
    ../Src/stm32f4xx_hal_msp.c               0x00000000   Number         0  stm32f4xx_hal_msp.o ABSOLUTE
    ../Src/stm32f4xx_it.c                    0x00000000   Number         0  stm32f4xx_it.o ABSOLUTE
    ../Src/system_stm32f4xx.c                0x00000000   Number         0  system_stm32f4xx.o ABSOLUTE
    ../Src/tim.c                             0x00000000   Number         0  tim.o ABSOLUTE
    ../Src/usart.c                           0x00000000   Number         0  usart.o ABSOLUTE
    ../clib/../cmprslib/zerorunl2.c          0x00000000   Number         0  __dczerorl2.o ABSOLUTE
    ../clib/microlib/division.c              0x00000000   Number         0  uldiv.o ABSOLUTE
    ../clib/microlib/division.c              0x00000000   Number         0  uidiv.o ABSOLUTE
    ../clib/microlib/init/entry.s            0x00000000   Number         0  entry8b.o ABSOLUTE
    ../clib/microlib/init/entry.s            0x00000000   Number         0  entry9a.o ABSOLUTE
    ../clib/microlib/init/entry.s            0x00000000   Number         0  entry9b.o ABSOLUTE
    ../clib/microlib/init/entry.s            0x00000000   Number         0  entry11b.o ABSOLUTE
    ../clib/microlib/init/entry.s            0x00000000   Number         0  entry11a.o ABSOLUTE
    ../clib/microlib/init/entry.s            0x00000000   Number         0  entry2.o ABSOLUTE
    ../clib/microlib/init/entry.s            0x00000000   Number         0  entry7a.o ABSOLUTE
    ../clib/microlib/init/entry.s            0x00000000   Number         0  entry7b.o ABSOLUTE
    ../clib/microlib/init/entry.s            0x00000000   Number         0  entry5.o ABSOLUTE
    ../clib/microlib/init/entry.s            0x00000000   Number         0  entry.o ABSOLUTE
    ../clib/microlib/init/entry.s            0x00000000   Number         0  entry8a.o ABSOLUTE
    ../clib/microlib/init/entry.s            0x00000000   Number         0  entry10b.o ABSOLUTE
    ../clib/microlib/init/entry.s            0x00000000   Number         0  entry10a.o ABSOLUTE
    ../clib/microlib/longlong.c              0x00000000   Number         0  llshl.o ABSOLUTE
    ../clib/microlib/longlong.c              0x00000000   Number         0  llsshr.o ABSOLUTE
    ../clib/microlib/longlong.c              0x00000000   Number         0  llushr.o ABSOLUTE
    ../clib/microlib/printf/printf.c         0x00000000   Number         0  printf3.o ABSOLUTE
    ../clib/microlib/printf/printf.c         0x00000000   Number         0  printfb.o ABSOLUTE
    ../clib/microlib/printf/printf.c         0x00000000   Number         0  printf0.o ABSOLUTE
    ../clib/microlib/printf/printf.c         0x00000000   Number         0  printf1.o ABSOLUTE
    ../clib/microlib/printf/printf.c         0x00000000   Number         0  printf2.o ABSOLUTE
    ../clib/microlib/printf/printf.c         0x00000000   Number         0  printf4.o ABSOLUTE
    ../clib/microlib/printf/printf.c         0x00000000   Number         0  printf5.o ABSOLUTE
    ../clib/microlib/printf/printf.c         0x00000000   Number         0  printf6.o ABSOLUTE
    ../clib/microlib/printf/printf.c         0x00000000   Number         0  printf7.o ABSOLUTE
    ../clib/microlib/printf/printf.c         0x00000000   Number         0  printf8.o ABSOLUTE
    ../clib/microlib/printf/printf.c         0x00000000   Number         0  printfa.o ABSOLUTE
    ../clib/microlib/printf/stubs.s          0x00000000   Number         0  stubs.o ABSOLUTE
    ../clib/microlib/string/memset.c         0x00000000   Number         0  memseta.o ABSOLUTE
    ../clib/microlib/stubs.s                 0x00000000   Number         0  useno.o ABSOLUTE
    ../clib/microlib/stubs.s                 0x00000000   Number         0  iusefp.o ABSOLUTE
    ../fplib/microlib/d2f.c                  0x00000000   Number         0  d2f.o ABSOLUTE
    ../fplib/microlib/f2d.c                  0x00000000   Number         0  f2d.o ABSOLUTE
    ../fplib/microlib/fpadd.c                0x00000000   Number         0  dadd.o ABSOLUTE
    ../fplib/microlib/fpdiv.c                0x00000000   Number         0  ddiv.o ABSOLUTE
    ../fplib/microlib/fpepilogue.c           0x00000000   Number         0  fepilogue.o ABSOLUTE
    ../fplib/microlib/fpepilogue.c           0x00000000   Number         0  depilogue.o ABSOLUTE
    ../fplib/microlib/fpfix.c                0x00000000   Number         0  dfixul.o ABSOLUTE
    ../fplib/microlib/fpflt.c                0x00000000   Number         0  dfltui.o ABSOLUTE
    ../fplib/microlib/fpmul.c                0x00000000   Number         0  dmul.o ABSOLUTE
    ..\Drivers\STM32F4xx_HAL_Driver\Src\stm32f4xx_hal.c 0x00000000   Number         0  stm32f4xx_hal.o ABSOLUTE
    ..\Drivers\STM32F4xx_HAL_Driver\Src\stm32f4xx_hal_cortex.c 0x00000000   Number         0  stm32f4xx_hal_cortex.o ABSOLUTE
    ..\Drivers\STM32F4xx_HAL_Driver\Src\stm32f4xx_hal_dma.c 0x00000000   Number         0  stm32f4xx_hal_dma.o ABSOLUTE
    ..\Drivers\STM32F4xx_HAL_Driver\Src\stm32f4xx_hal_dma_ex.c 0x00000000   Number         0  stm32f4xx_hal_dma_ex.o ABSOLUTE
    ..\Drivers\STM32F4xx_HAL_Driver\Src\stm32f4xx_hal_flash.c 0x00000000   Number         0  stm32f4xx_hal_flash.o ABSOLUTE
    ..\Drivers\STM32F4xx_HAL_Driver\Src\stm32f4xx_hal_flash_ex.c 0x00000000   Number         0  stm32f4xx_hal_flash_ex.o ABSOLUTE
    ..\Drivers\STM32F4xx_HAL_Driver\Src\stm32f4xx_hal_flash_ramfunc.c 0x00000000   Number         0  stm32f4xx_hal_flash_ramfunc.o ABSOLUTE
    ..\Drivers\STM32F4xx_HAL_Driver\Src\stm32f4xx_hal_gpio.c 0x00000000   Number         0  stm32f4xx_hal_gpio.o ABSOLUTE
    ..\Drivers\STM32F4xx_HAL_Driver\Src\stm32f4xx_hal_pwr.c 0x00000000   Number         0  stm32f4xx_hal_pwr.o ABSOLUTE
    ..\Drivers\STM32F4xx_HAL_Driver\Src\stm32f4xx_hal_pwr_ex.c 0x00000000   Number         0  stm32f4xx_hal_pwr_ex.o ABSOLUTE
    ..\Drivers\STM32F4xx_HAL_Driver\Src\stm32f4xx_hal_rcc.c 0x00000000   Number         0  stm32f4xx_hal_rcc.o ABSOLUTE
    ..\Drivers\STM32F4xx_HAL_Driver\Src\stm32f4xx_hal_rcc_ex.c 0x00000000   Number         0  stm32f4xx_hal_rcc_ex.o ABSOLUTE
    ..\Drivers\STM32F4xx_HAL_Driver\Src\stm32f4xx_hal_tim.c 0x00000000   Number         0  stm32f4xx_hal_tim.o ABSOLUTE
    ..\Drivers\STM32F4xx_HAL_Driver\Src\stm32f4xx_hal_tim_ex.c 0x00000000   Number         0  stm32f4xx_hal_tim_ex.o ABSOLUTE
    ..\Drivers\STM32F4xx_HAL_Driver\Src\stm32f4xx_hal_uart.c 0x00000000   Number         0  stm32f4xx_hal_uart.o ABSOLUTE
    ..\Drivers\STM32F4xx_HAL_Driver\Src\stm32f4xx_hal_usart.c 0x00000000   Number         0  stm32f4xx_hal_usart.o ABSOLUTE
    ..\Src\gpio.c                            0x00000000   Number         0  gpio.o ABSOLUTE
    ..\Src\main.c                            0x00000000   Number         0  main.o ABSOLUTE
    ..\Src\stm32f4xx_hal_msp.c               0x00000000   Number         0  stm32f4xx_hal_msp.o ABSOLUTE
    ..\Src\stm32f4xx_it.c                    0x00000000   Number         0  stm32f4xx_it.o ABSOLUTE
    ..\Src\system_stm32f4xx.c                0x00000000   Number         0  system_stm32f4xx.o ABSOLUTE
    ..\Src\tim.c                             0x00000000   Number         0  tim.o ABSOLUTE
    ..\Src\usart.c                           0x00000000   Number         0  usart.o ABSOLUTE
    ..\\Drivers\\STM32F4xx_HAL_Driver\\Src\\stm32f4xx_hal_uart.c 0x00000000   Number         0  stm32f4xx_hal_uart.o ABSOLUTE
    ..\\Drivers\\STM32F4xx_HAL_Driver\\Src\\stm32f4xx_hal_usart.c 0x00000000   Number         0  stm32f4xx_hal_usart.o ABSOLUTE
    SYSTEM\\delay.c                          0x00000000   Number         0  delay.o ABSOLUTE
    SYSTEM\\my_delay.c                       0x00000000   Number         0  my_delay.o ABSOLUTE
    SYSTEM\\sys.c                            0x00000000   Number         0  sys.o ABSOLUTE
    SYSTEM\\z_usart.c                        0x00000000   Number         0  z_usart.o ABSOLUTE
    SYSTEM\delay.c                           0x00000000   Number         0  delay.o ABSOLUTE
    SYSTEM\my_delay.c                        0x00000000   Number         0  my_delay.o ABSOLUTE
    SYSTEM\sys.c                             0x00000000   Number         0  sys.o ABSOLUTE
    SYSTEM\z_usart.c                         0x00000000   Number         0  z_usart.o ABSOLUTE
    USERS\\elude.c                           0x00000000   Number         0  elude.o ABSOLUTE
    USERS\\hc05.c                            0x00000000   Number         0  hc05.o ABSOLUTE
    USERS\\motor.c                           0x00000000   Number         0  motor.o ABSOLUTE
    USERS\\servo.c                           0x00000000   Number         0  servo.o ABSOLUTE
    USERS\\track.c                           0x00000000   Number         0  track.o ABSOLUTE
    USERS\\ultrasonic.c                      0x00000000   Number         0  ultrasonic.o ABSOLUTE
    USERS\elude.c                            0x00000000   Number         0  elude.o ABSOLUTE
    USERS\hc05.c                             0x00000000   Number         0  hc05.o ABSOLUTE
    USERS\motor.c                            0x00000000   Number         0  motor.o ABSOLUTE
    USERS\servo.c                            0x00000000   Number         0  servo.o ABSOLUTE
    USERS\track.c                            0x00000000   Number         0  track.o ABSOLUTE
    USERS\ultrasonic.c                       0x00000000   Number         0  ultrasonic.o ABSOLUTE
    USMART\\usmart.c                         0x00000000   Number         0  usmart.o ABSOLUTE
    USMART\\usmart_config.c                  0x00000000   Number         0  usmart_config.o ABSOLUTE
    USMART\\usmart_str.c                     0x00000000   Number         0  usmart_str.o ABSOLUTE
    USMART\usmart.c                          0x00000000   Number         0  usmart.o ABSOLUTE
    USMART\usmart_config.c                   0x00000000   Number         0  usmart_config.o ABSOLUTE
    USMART\usmart_str.c                      0x00000000   Number         0  usmart_str.o ABSOLUTE
    cdrcmple.s                               0x00000000   Number         0  cdrcmple.o ABSOLUTE
    dc.s                                     0x00000000   Number         0  dc.o ABSOLUTE
    handlers.s                               0x00000000   Number         0  handlers.o ABSOLUTE
    init.s                                   0x00000000   Number         0  init.o ABSOLUTE
    startup_stm32f407xx.s                    0x00000000   Number         0  startup_stm32f407xx.o ABSOLUTE
    RESET                                    0x08000000   Section      392  startup_stm32f407xx.o(RESET)
    .ARM.Collect$$$$00000000                 0x08000188   Section        0  entry.o(.ARM.Collect$$$$00000000)
    .ARM.Collect$$$$00000001                 0x08000188   Section        4  entry2.o(.ARM.Collect$$$$00000001)
    .ARM.Collect$$$$00000004                 0x0800018c   Section        4  entry5.o(.ARM.Collect$$$$00000004)
    .ARM.Collect$$$$00000008                 0x08000190   Section        0  entry7b.o(.ARM.Collect$$$$00000008)
    .ARM.Collect$$$$0000000A                 0x08000190   Section        0  entry8b.o(.ARM.Collect$$$$0000000A)
    .ARM.Collect$$$$0000000B                 0x08000190   Section        8  entry9a.o(.ARM.Collect$$$$0000000B)
    .ARM.Collect$$$$0000000D                 0x08000198   Section        0  entry10a.o(.ARM.Collect$$$$0000000D)
    .ARM.Collect$$$$0000000F                 0x08000198   Section        0  entry11a.o(.ARM.Collect$$$$0000000F)
    .ARM.Collect$$$$00002712                 0x08000198   Section        4  entry2.o(.ARM.Collect$$$$00002712)
    __lit__00000000                          0x08000198   Data           4  entry2.o(.ARM.Collect$$$$00002712)
    .text                                    0x0800019c   Section       36  startup_stm32f407xx.o(.text)
    $v0                                      0x0800019c   Number         0  startup_stm32f407xx.o(.text)
    .text                                    0x080001c0   Section        0  uldiv.o(.text)
    .text                                    0x08000224   Section       36  init.o(.text)
    .text                                    0x08000248   Section        0  llshl.o(.text)
    .text                                    0x08000266   Section        0  llushr.o(.text)
    .text                                    0x08000286   Section        0  __dczerorl2.o(.text)
    i.Bluetooth_control                      0x080002dc   Section        0  hc05.o(i.Bluetooth_control)
    i.BusFault_Handler                       0x08000340   Section        0  stm32f4xx_it.o(i.BusFault_Handler)
    i.Change_CH1_Speed                       0x08000344   Section        0  hc05.o(i.Change_CH1_Speed)
    i.Change_CH2_Speed                       0x0800038c   Section        0  hc05.o(i.Change_CH2_Speed)
    i.Change_CH3_Speed                       0x080003d0   Section        0  hc05.o(i.Change_CH3_Speed)
    i.Change_CH4_Speed                       0x08000414   Section        0  hc05.o(i.Change_CH4_Speed)
    i.Change_Speed                           0x08000458   Section        0  hc05.o(i.Change_Speed)
    i.DebugMon_Handler                       0x08000476   Section        0  stm32f4xx_it.o(i.DebugMon_Handler)
    i.HAL_GPIO_Init                          0x0800047c   Section        0  stm32f4xx_hal_gpio.o(i.HAL_GPIO_Init)
    i.HAL_GPIO_WritePin                      0x08000688   Section        0  stm32f4xx_hal_gpio.o(i.HAL_GPIO_WritePin)
    i.HAL_GetTick                            0x08000694   Section        0  stm32f4xx_hal.o(i.HAL_GetTick)
    i.HAL_IncTick                            0x080006a0   Section        0  stm32f4xx_hal.o(i.HAL_IncTick)
    i.HAL_Init                               0x080006b0   Section        0  stm32f4xx_hal.o(i.HAL_Init)
    i.HAL_InitTick                           0x080006ec   Section        0  stm32f4xx_hal.o(i.HAL_InitTick)
    i.HAL_MspInit                            0x08000710   Section        0  stm32f4xx_hal_msp.o(i.HAL_MspInit)
    i.HAL_NVIC_EnableIRQ                     0x08000752   Section        0  stm32f4xx_hal_cortex.o(i.HAL_NVIC_EnableIRQ)
    i.HAL_NVIC_SetPriority                   0x0800076c   Section        0  stm32f4xx_hal_cortex.o(i.HAL_NVIC_SetPriority)
    i.HAL_NVIC_SetPriorityGrouping           0x080007e8   Section        0  stm32f4xx_hal_cortex.o(i.HAL_NVIC_SetPriorityGrouping)
    i.HAL_RCC_CSSCallback                    0x08000810   Section        0  stm32f4xx_hal_rcc.o(i.HAL_RCC_CSSCallback)
    i.HAL_RCC_ClockConfig                    0x08000814   Section        0  stm32f4xx_hal_rcc.o(i.HAL_RCC_ClockConfig)
    i.HAL_RCC_GetHCLKFreq                    0x080009b8   Section        0  stm32f4xx_hal_rcc.o(i.HAL_RCC_GetHCLKFreq)
    i.HAL_RCC_GetPCLK1Freq                   0x080009f0   Section        0  stm32f4xx_hal_rcc.o(i.HAL_RCC_GetPCLK1Freq)
    i.HAL_RCC_GetPCLK2Freq                   0x08000a1c   Section        0  stm32f4xx_hal_rcc.o(i.HAL_RCC_GetPCLK2Freq)
    i.HAL_RCC_GetSysClockFreq                0x08000a48   Section        0  stm32f4xx_hal_rcc.o(i.HAL_RCC_GetSysClockFreq)
    i.HAL_RCC_NMI_IRQHandler                 0x08000afc   Section        0  stm32f4xx_hal_rcc.o(i.HAL_RCC_NMI_IRQHandler)
    i.HAL_RCC_OscConfig                      0x08000b1c   Section        0  stm32f4xx_hal_rcc.o(i.HAL_RCC_OscConfig)
    i.HAL_SYSTICK_CLKSourceConfig            0x08000eb8   Section        0  stm32f4xx_hal_cortex.o(i.HAL_SYSTICK_CLKSourceConfig)
    i.HAL_SYSTICK_Callback                   0x08000ee0   Section        0  stm32f4xx_hal_cortex.o(i.HAL_SYSTICK_Callback)
    i.HAL_SYSTICK_Config                     0x08000ee2   Section        0  stm32f4xx_hal_cortex.o(i.HAL_SYSTICK_Config)
    i.HAL_SYSTICK_IRQHandler                 0x08000f16   Section        0  stm32f4xx_hal_cortex.o(i.HAL_SYSTICK_IRQHandler)
    i.HAL_TIMEx_BreakCallback                0x08000f1e   Section        0  stm32f4xx_hal_tim_ex.o(i.HAL_TIMEx_BreakCallback)
    i.HAL_TIMEx_CommutationCallback          0x08000f20   Section        0  stm32f4xx_hal_tim_ex.o(i.HAL_TIMEx_CommutationCallback)
    i.HAL_TIMEx_MasterConfigSynchronization  0x08000f22   Section        0  stm32f4xx_hal_tim_ex.o(i.HAL_TIMEx_MasterConfigSynchronization)
    i.HAL_TIM_Base_Init                      0x08000f84   Section        0  stm32f4xx_hal_tim.o(i.HAL_TIM_Base_Init)
    i.HAL_TIM_Base_MspInit                   0x08000fb8   Section        0  tim.o(i.HAL_TIM_Base_MspInit)
    i.HAL_TIM_Base_Start_IT                  0x08001110   Section        0  stm32f4xx_hal_tim.o(i.HAL_TIM_Base_Start_IT)
    i.HAL_TIM_ConfigClockSource              0x0800112e   Section        0  stm32f4xx_hal_tim.o(i.HAL_TIM_ConfigClockSource)
    i.HAL_TIM_IC_CaptureCallback             0x08001260   Section        0  stm32f4xx_hal_tim.o(i.HAL_TIM_IC_CaptureCallback)
    i.HAL_TIM_IC_ConfigChannel               0x08001262   Section        0  stm32f4xx_hal_tim.o(i.HAL_TIM_IC_ConfigChannel)
    i.HAL_TIM_IC_Init                        0x08001342   Section        0  stm32f4xx_hal_tim.o(i.HAL_TIM_IC_Init)
    i.HAL_TIM_IC_MspInit                     0x08001376   Section        0  stm32f4xx_hal_tim.o(i.HAL_TIM_IC_MspInit)
    i.HAL_TIM_IRQHandler                     0x08001378   Section        0  stm32f4xx_hal_tim.o(i.HAL_TIM_IRQHandler)
    i.HAL_TIM_MspPostInit                    0x08001510   Section        0  tim.o(i.HAL_TIM_MspPostInit)
    i.HAL_TIM_OC_DelayElapsedCallback        0x08001570   Section        0  stm32f4xx_hal_tim.o(i.HAL_TIM_OC_DelayElapsedCallback)
    i.HAL_TIM_PWM_ConfigChannel              0x08001572   Section        0  stm32f4xx_hal_tim.o(i.HAL_TIM_PWM_ConfigChannel)
    i.HAL_TIM_PWM_Init                       0x0800167a   Section        0  stm32f4xx_hal_tim.o(i.HAL_TIM_PWM_Init)
    i.HAL_TIM_PWM_MspInit                    0x080016ae   Section        0  stm32f4xx_hal_tim.o(i.HAL_TIM_PWM_MspInit)
    i.HAL_TIM_PWM_PulseFinishedCallback      0x080016b0   Section        0  stm32f4xx_hal_tim.o(i.HAL_TIM_PWM_PulseFinishedCallback)
    i.HAL_TIM_PWM_Start                      0x080016b4   Section        0  stm32f4xx_hal_tim.o(i.HAL_TIM_PWM_Start)
    i.HAL_TIM_PeriodElapsedCallback          0x08001700   Section        0  stm32f4xx_hal_tim.o(i.HAL_TIM_PeriodElapsedCallback)
    i.HAL_TIM_TriggerCallback                0x08001702   Section        0  stm32f4xx_hal_tim.o(i.HAL_TIM_TriggerCallback)
    i.HAL_UART_ErrorCallback                 0x08001704   Section        0  stm32f4xx_hal_uart.o(i.HAL_UART_ErrorCallback)
    i.HAL_UART_GetState                      0x08001706   Section        0  stm32f4xx_hal_uart.o(i.HAL_UART_GetState)
    i.HAL_UART_IRQHandler                    0x0800171a   Section        0  stm32f4xx_hal_uart.o(i.HAL_UART_IRQHandler)
    i.HAL_UART_Init                          0x0800184e   Section        0  stm32f4xx_hal_uart.o(i.HAL_UART_Init)
    i.HAL_UART_MspInit                       0x080018c0   Section        0  usart.o(i.HAL_UART_MspInit)
    i.HAL_UART_Receive_IT                    0x0800192c   Section        0  stm32f4xx_hal_uart.o(i.HAL_UART_Receive_IT)
    i.HAL_UART_RxCpltCallback                0x0800199c   Section        0  z_usart.o(i.HAL_UART_RxCpltCallback)
    i.HAL_UART_TxCpltCallback                0x08001a24   Section        0  stm32f4xx_hal_uart.o(i.HAL_UART_TxCpltCallback)
    i.HardFault_Handler                      0x08001a26   Section        0  stm32f4xx_it.o(i.HardFault_Handler)
    i.MX_GPIO_Init                           0x08001a2c   Section        0  gpio.o(i.MX_GPIO_Init)
    i.MX_TIM14_Init                          0x08001c08   Section        0  tim.o(i.MX_TIM14_Init)
    i.MX_TIM2_Init                           0x08001c50   Section        0  tim.o(i.MX_TIM2_Init)
    i.MX_TIM3_Init                           0x08001c9c   Section        0  tim.o(i.MX_TIM3_Init)
    i.MX_TIM6_Init                           0x08001d5c   Section        0  tim.o(i.MX_TIM6_Init)
    i.MX_TIM7_Init                           0x08001d90   Section        0  tim.o(i.MX_TIM7_Init)
    i.MX_TIM9_Init                           0x08001dd4   Section        0  tim.o(i.MX_TIM9_Init)
    i.MX_USART2_UART_Init                    0x08001e3c   Section        0  usart.o(i.MX_USART2_UART_Init)
    i.MemManage_Handler                      0x08001e6c   Section        0  stm32f4xx_it.o(i.MemManage_Handler)
    i.NMI_Handler                            0x08001e70   Section        0  stm32f4xx_it.o(i.NMI_Handler)
    i.NVIC_GetPriorityGrouping               0x08001e78   Section        0  stm32f4xx_hal_cortex.o(i.NVIC_GetPriorityGrouping)
    NVIC_GetPriorityGrouping                 0x08001e79   Thumb Code    10  stm32f4xx_hal_cortex.o(i.NVIC_GetPriorityGrouping)
    i.NVIC_SetPriority                       0x08001e88   Section        0  stm32f4xx_hal_cortex.o(i.NVIC_SetPriority)
    NVIC_SetPriority                         0x08001e89   Thumb Code    32  stm32f4xx_hal_cortex.o(i.NVIC_SetPriority)
    i.Not_Find_Black                         0x08001eb0   Section        0  track.o(i.Not_Find_Black)
    i.R1_Rotation                            0x08001f04   Section        0  motor.o(i.R1_Rotation)
    i.R2_Rotation                            0x08001f20   Section        0  motor.o(i.R2_Rotation)
    i.Stop                                   0x08001f3c   Section        0  motor.o(i.Stop)
    i.SysTick_Handler                        0x08001f98   Section        0  stm32f4xx_it.o(i.SysTick_Handler)
    i.SystemClock_Config                     0x08001fa4   Section        0  main.o(i.SystemClock_Config)
    i.SystemInit                             0x0800205c   Section        0  system_stm32f4xx.o(i.SystemInit)
    i.TIM2_IRQHandler                        0x080020c0   Section        0  stm32f4xx_it.o(i.TIM2_IRQHandler)
    i.TIM4_IRQHandler                        0x080020d4   Section        0  usmart.o(i.TIM4_IRQHandler)
    i.TIM8_TRG_COM_TIM14_IRQHandler          0x08002118   Section        0  stm32f4xx_it.o(i.TIM8_TRG_COM_TIM14_IRQHandler)
    i.TIM_Base_SetConfig                     0x08002128   Section        0  stm32f4xx_hal_tim.o(i.TIM_Base_SetConfig)
    i.TIM_CCxChannelCmd                      0x0800220c   Section        0  stm32f4xx_hal_tim.o(i.TIM_CCxChannelCmd)
    i.TIM_ETR_SetConfig                      0x08002228   Section        0  stm32f4xx_hal_tim.o(i.TIM_ETR_SetConfig)
    TIM_ETR_SetConfig                        0x08002229   Thumb Code    24  stm32f4xx_hal_tim.o(i.TIM_ETR_SetConfig)
    i.TIM_ITRx_SetConfig                     0x08002240   Section        0  stm32f4xx_hal_tim.o(i.TIM_ITRx_SetConfig)
    TIM_ITRx_SetConfig                       0x08002241   Thumb Code    20  stm32f4xx_hal_tim.o(i.TIM_ITRx_SetConfig)
    i.TIM_OC1_SetConfig                      0x08002254   Section        0  stm32f4xx_hal_tim.o(i.TIM_OC1_SetConfig)
    TIM_OC1_SetConfig                        0x08002255   Thumb Code   102  stm32f4xx_hal_tim.o(i.TIM_OC1_SetConfig)
    i.TIM_OC2_SetConfig                      0x080022c4   Section        0  stm32f4xx_hal_tim.o(i.TIM_OC2_SetConfig)
    i.TIM_OC3_SetConfig                      0x0800233c   Section        0  stm32f4xx_hal_tim.o(i.TIM_OC3_SetConfig)
    TIM_OC3_SetConfig                        0x0800233d   Thumb Code   110  stm32f4xx_hal_tim.o(i.TIM_OC3_SetConfig)
    i.TIM_OC4_SetConfig                      0x080023b4   Section        0  stm32f4xx_hal_tim.o(i.TIM_OC4_SetConfig)
    TIM_OC4_SetConfig                        0x080023b5   Thumb Code    88  stm32f4xx_hal_tim.o(i.TIM_OC4_SetConfig)
    i.TIM_TI1_ConfigInputStage               0x08002414   Section        0  stm32f4xx_hal_tim.o(i.TIM_TI1_ConfigInputStage)
    TIM_TI1_ConfigInputStage                 0x08002415   Thumb Code    42  stm32f4xx_hal_tim.o(i.TIM_TI1_ConfigInputStage)
    i.TIM_TI1_SetConfig                      0x08002440   Section        0  stm32f4xx_hal_tim.o(i.TIM_TI1_SetConfig)
    i.TIM_TI2_ConfigInputStage               0x080024d8   Section        0  stm32f4xx_hal_tim.o(i.TIM_TI2_ConfigInputStage)
    TIM_TI2_ConfigInputStage                 0x080024d9   Thumb Code    44  stm32f4xx_hal_tim.o(i.TIM_TI2_ConfigInputStage)
    i.TIM_TI2_SetConfig                      0x08002504   Section        0  stm32f4xx_hal_tim.o(i.TIM_TI2_SetConfig)
    TIM_TI2_SetConfig                        0x08002505   Thumb Code    62  stm32f4xx_hal_tim.o(i.TIM_TI2_SetConfig)
    i.TIM_TI3_SetConfig                      0x08002542   Section        0  stm32f4xx_hal_tim.o(i.TIM_TI3_SetConfig)
    TIM_TI3_SetConfig                        0x08002543   Thumb Code    60  stm32f4xx_hal_tim.o(i.TIM_TI3_SetConfig)
    i.TIM_TI4_SetConfig                      0x0800257e   Section        0  stm32f4xx_hal_tim.o(i.TIM_TI4_SetConfig)
    TIM_TI4_SetConfig                        0x0800257f   Thumb Code    64  stm32f4xx_hal_tim.o(i.TIM_TI4_SetConfig)
    i.Timer4_Init                            0x080025c0   Section        0  usmart.o(i.Timer4_Init)
    i.Turnback                               0x08002620   Section        0  motor.o(i.Turnback)
    i.Turnfoward                             0x0800267c   Section        0  motor.o(i.Turnfoward)
    i.Turnleft                               0x080026d8   Section        0  motor.o(i.Turnleft)
    i.Turnright                              0x08002734   Section        0  motor.o(i.Turnright)
    i.UART_EndTransmit_IT                    0x08002790   Section        0  stm32f4xx_hal_uart.o(i.UART_EndTransmit_IT)
    UART_EndTransmit_IT                      0x08002791   Thumb Code    32  stm32f4xx_hal_uart.o(i.UART_EndTransmit_IT)
    i.UART_Receive_IT                        0x080027b0   Section        0  stm32f4xx_hal_uart.o(i.UART_Receive_IT)
    UART_Receive_IT                          0x080027b1   Thumb Code   166  stm32f4xx_hal_uart.o(i.UART_Receive_IT)
    i.UART_SetConfig                         0x08002858   Section        0  stm32f4xx_hal_uart.o(i.UART_SetConfig)
    UART_SetConfig                           0x08002859   Thumb Code   864  stm32f4xx_hal_uart.o(i.UART_SetConfig)
    i.UART_Transmit_IT                       0x08002bc0   Section        0  stm32f4xx_hal_uart.o(i.UART_Transmit_IT)
    UART_Transmit_IT                         0x08002bc1   Thumb Code   104  stm32f4xx_hal_uart.o(i.UART_Transmit_IT)
    i.USART1_IRQHandler                      0x08002c28   Section        0  z_usart.o(i.USART1_IRQHandler)
    i.USART2_IRQHandler                      0x08002c68   Section        0  stm32f4xx_it.o(i.USART2_IRQHandler)
    i.UsageFault_Handler                     0x08002c7c   Section        0  stm32f4xx_it.o(i.UsageFault_Handler)
    i.__0printf$8                            0x08002c80   Section        0  printf8.o(i.__0printf$8)
    i.__scatterload_copy                     0x08002ca0   Section       14  handlers.o(i.__scatterload_copy)
    i.__scatterload_null                     0x08002cae   Section        2  handlers.o(i.__scatterload_null)
    i.__scatterload_zeroinit                 0x08002cb0   Section       14  handlers.o(i.__scatterload_zeroinit)
    i._printf_core                           0x08002cc0   Section        0  printf8.o(i._printf_core)
    _printf_core                             0x08002cc1   Thumb Code   996  printf8.o(i._printf_core)
    i._printf_post_padding                   0x080030d0   Section        0  printf8.o(i._printf_post_padding)
    _printf_post_padding                     0x080030d1   Thumb Code    36  printf8.o(i._printf_post_padding)
    i._printf_pre_padding                    0x080030f4   Section        0  printf8.o(i._printf_pre_padding)
    _printf_pre_padding                      0x080030f5   Thumb Code    46  printf8.o(i._printf_pre_padding)
    i.fputc                                  0x08003124   Section        0  z_usart.o(i.fputc)
    i.main                                   0x08003140   Section        0  main.o(i.main)
    i.read_addr                              0x08003170   Section        0  usmart.o(i.read_addr)
    i.usmart_cmd_rec                         0x08003178   Section        0  usmart.o(i.usmart_cmd_rec)
    i.usmart_exe                             0x08003228   Section        0  usmart.o(i.usmart_exe)
    i.usmart_get_aparm                       0x080034fc   Section        0  usmart_str.o(i.usmart_get_aparm)
    i.usmart_get_cmdname                     0x080035d0   Section        0  usmart_str.o(i.usmart_get_cmdname)
    i.usmart_get_fname                       0x08003608   Section        0  usmart_str.o(i.usmart_get_fname)
    i.usmart_get_fparam                      0x080037c8   Section        0  usmart_str.o(i.usmart_get_fparam)
    i.usmart_get_parmpos                     0x080038d4   Section        0  usmart_str.o(i.usmart_get_parmpos)
    i.usmart_get_runtime                     0x080038f4   Section        0  usmart.o(i.usmart_get_runtime)
    i.usmart_init                            0x08003938   Section        0  usmart.o(i.usmart_init)
    i.usmart_pow                             0x08003960   Section        0  usmart_str.o(i.usmart_pow)
    i.usmart_reset_runtime                   0x08003978   Section        0  usmart.o(i.usmart_reset_runtime)
    i.usmart_scan                            0x080039ac   Section        0  usmart.o(i.usmart_scan)
    i.usmart_search_nextc                    0x08003a68   Section        0  usmart_str.o(i.usmart_search_nextc)
    i.usmart_str2num                         0x08003a7e   Section        0  usmart_str.o(i.usmart_str2num)
    i.usmart_strcmp                          0x08003b84   Section        0  usmart_str.o(i.usmart_strcmp)
    i.usmart_strcopy                         0x08003ba6   Section        0  usmart_str.o(i.usmart_strcopy)
    i.usmart_strlen                          0x08003bbc   Section        0  usmart_str.o(i.usmart_strlen)
    i.usmart_sys_cmd_exe                     0x08003bd4   Section        0  usmart.o(i.usmart_sys_cmd_exe)
    i.write_addr                             0x080042c8   Section        0  usmart.o(i.write_addr)
    .constdata                               0x080042cc   Section       16  stm32f4xx_hal_rcc.o(.constdata)
    .conststring                             0x080042dc   Section       40  usmart.o(.conststring)
    .conststring                             0x08004304   Section      108  usmart_config.o(.conststring)
    .data                                    0x20000000   Section        7  z_usart.o(.data)
    .data                                    0x20000008   Section        5  track.o(.data)
    .data                                    0x20000010   Section       28  usmart.o(.data)
    .data                                    0x2000002c   Section      276  usmart_config.o(.data)
    .data                                    0x20000140   Section        4  stm32f4xx_hal.o(.data)
    .data                                    0x20000144   Section        4  system_stm32f4xx.o(.data)
    .bss                                     0x20000148   Section      360  tim.o(.bss)
    .bss                                     0x200002b0   Section       64  usart.o(.bss)
    .bss                                     0x200002f0   Section      264  z_usart.o(.bss)
    .bss                                     0x200003f8   Section       60  usmart.o(.bss)
    STACK                                    0x20000438   Section     1024  startup_stm32f407xx.o(STACK)

    Global Symbols

    Symbol Name                              Value     Ov Type        Size  Object(Section)

    BuildAttributes$$THM_ISAv4$E$P$D$K$B$S$7EM$VFPi3$EXTD16$VFPS$VFMA$PE$A:L22UL41UL21$X:L11$S22US41US21$IEEE1$IW$USESV6$~STKCKD$USESV7$~SHL$OTIME$ROPI$EBA8$MICROLIB$REQ8$PRES8$EABIv2 0x00000000   Number         0  anon$$obj.o ABSOLUTE
    __ARM_use_no_argv                        0x00000000   Number         0  main.o ABSOLUTE
    __use_no_errno                           0x00000000   Number         0  useno.o ABSOLUTE
    __use_no_exception_handling              0x00000000   Number         0  useno.o ABSOLUTE
    __use_no_fp                              0x00000000   Number         0  useno.o ABSOLUTE
    __use_no_heap                            0x00000000   Number         0  useno.o ABSOLUTE
    __use_no_heap_region                     0x00000000   Number         0  useno.o ABSOLUTE
    __use_no_semihosting                     0x00000000   Number         0  useno.o ABSOLUTE
    __use_no_semihosting_swi                 0x00000000   Number         0  useno.o ABSOLUTE
    __use_no_signal_handling                 0x00000000   Number         0  useno.o ABSOLUTE
    _printf_a                                0x00000000   Number         0  stubs.o ABSOLUTE
    _printf_c                                0x00000000   Number         0  stubs.o ABSOLUTE
    _printf_charcount                        0x00000000   Number         0  stubs.o ABSOLUTE
    _printf_d                                0x00000000   Number         0  stubs.o ABSOLUTE
    _printf_e                                0x00000000   Number         0  stubs.o ABSOLUTE
    _printf_f                                0x00000000   Number         0  stubs.o ABSOLUTE
    _printf_flags                            0x00000000   Number         0  stubs.o ABSOLUTE
    _printf_fp_dec                           0x00000000   Number         0  stubs.o ABSOLUTE
    _printf_fp_hex                           0x00000000   Number         0  stubs.o ABSOLUTE
    _printf_g                                0x00000000   Number         0  stubs.o ABSOLUTE
    _printf_i                                0x00000000   Number         0  stubs.o ABSOLUTE
    _printf_int_dec                          0x00000000   Number         0  stubs.o ABSOLUTE
    _printf_l                                0x00000000   Number         0  stubs.o ABSOLUTE
    _printf_lc                               0x00000000   Number         0  stubs.o ABSOLUTE
    _printf_ll                               0x00000000   Number         0  stubs.o ABSOLUTE
    _printf_lld                              0x00000000   Number         0  stubs.o ABSOLUTE
    _printf_lli                              0x00000000   Number         0  stubs.o ABSOLUTE
    _printf_llo                              0x00000000   Number         0  stubs.o ABSOLUTE
    _printf_llu                              0x00000000   Number         0  stubs.o ABSOLUTE
    _printf_llx                              0x00000000   Number         0  stubs.o ABSOLUTE
    _printf_longlong_dec                     0x00000000   Number         0  stubs.o ABSOLUTE
    _printf_longlong_hex                     0x00000000   Number         0  stubs.o ABSOLUTE
    _printf_longlong_oct                     0x00000000   Number         0  stubs.o ABSOLUTE
    _printf_ls                               0x00000000   Number         0  stubs.o ABSOLUTE
    _printf_mbtowc                           0x00000000   Number         0  stubs.o ABSOLUTE
    _printf_n                                0x00000000   Number         0  stubs.o ABSOLUTE
    _printf_o                                0x00000000   Number         0  stubs.o ABSOLUTE
    _printf_p                                0x00000000   Number         0  stubs.o ABSOLUTE
    _printf_percent                          0x00000000   Number         0  stubs.o ABSOLUTE
    _printf_pre_padding                      0x00000000   Number         0  stubs.o ABSOLUTE
    _printf_return_value                     0x00000000   Number         0  stubs.o ABSOLUTE
    _printf_s                                0x00000000   Number         0  stubs.o ABSOLUTE
    _printf_sizespec                         0x00000000   Number         0  stubs.o ABSOLUTE
    _printf_str                              0x00000000   Number         0  stubs.o ABSOLUTE
    _printf_truncate_signed                  0x00000000   Number         0  stubs.o ABSOLUTE
    _printf_truncate_unsigned                0x00000000   Number         0  stubs.o ABSOLUTE
    _printf_u                                0x00000000   Number         0  stubs.o ABSOLUTE
    _printf_wc                               0x00000000   Number         0  stubs.o ABSOLUTE
    _printf_wctomb                           0x00000000   Number         0  stubs.o ABSOLUTE
    _printf_widthprec                        0x00000000   Number         0  stubs.o ABSOLUTE
    _printf_x                                0x00000000   Number         0  stubs.o ABSOLUTE
    __cpp_initialize__aeabi_                  - Undefined Weak Reference
    __cxa_finalize                            - Undefined Weak Reference
    _clock_init                               - Undefined Weak Reference
    _microlib_exit                            - Undefined Weak Reference
    __Vectors_Size                           0x00000188   Number         0  startup_stm32f407xx.o ABSOLUTE
    __Vectors                                0x08000000   Data           4  startup_stm32f407xx.o(RESET)
    __Vectors_End                            0x08000188   Data           0  startup_stm32f407xx.o(RESET)
    __main                                   0x08000189   Thumb Code     0  entry.o(.ARM.Collect$$$$00000000)
    _main_stk                                0x08000189   Thumb Code     0  entry2.o(.ARM.Collect$$$$00000001)
    _main_scatterload                        0x0800018d   Thumb Code     0  entry5.o(.ARM.Collect$$$$00000004)
    __main_after_scatterload                 0x08000191   Thumb Code     0  entry5.o(.ARM.Collect$$$$00000004)
    _main_clock                              0x08000191   Thumb Code     0  entry7b.o(.ARM.Collect$$$$00000008)
    _main_cpp_init                           0x08000191   Thumb Code     0  entry8b.o(.ARM.Collect$$$$0000000A)
    _main_init                               0x08000191   Thumb Code     0  entry9a.o(.ARM.Collect$$$$0000000B)
    __rt_final_cpp                           0x08000199   Thumb Code     0  entry10a.o(.ARM.Collect$$$$0000000D)
    __rt_final_exit                          0x08000199   Thumb Code     0  entry11a.o(.ARM.Collect$$$$0000000F)
    Reset_Handler                            0x0800019d   Thumb Code     8  startup_stm32f407xx.o(.text)
    SVC_Handler                              0x080001af   Thumb Code     2  startup_stm32f407xx.o(.text)
    PendSV_Handler                           0x080001b3   Thumb Code     2  startup_stm32f407xx.o(.text)
    ADC_IRQHandler                           0x080001b7   Thumb Code     0  startup_stm32f407xx.o(.text)
    CAN1_RX0_IRQHandler                      0x080001b7   Thumb Code     0  startup_stm32f407xx.o(.text)
    CAN1_RX1_IRQHandler                      0x080001b7   Thumb Code     0  startup_stm32f407xx.o(.text)
    CAN1_SCE_IRQHandler                      0x080001b7   Thumb Code     0  startup_stm32f407xx.o(.text)
    CAN1_TX_IRQHandler                       0x080001b7   Thumb Code     0  startup_stm32f407xx.o(.text)
    CAN2_RX0_IRQHandler                      0x080001b7   Thumb Code     0  startup_stm32f407xx.o(.text)
    CAN2_RX1_IRQHandler                      0x080001b7   Thumb Code     0  startup_stm32f407xx.o(.text)
    CAN2_SCE_IRQHandler                      0x080001b7   Thumb Code     0  startup_stm32f407xx.o(.text)
    CAN2_TX_IRQHandler                       0x080001b7   Thumb Code     0  startup_stm32f407xx.o(.text)
    DCMI_IRQHandler                          0x080001b7   Thumb Code     0  startup_stm32f407xx.o(.text)
    DMA1_Stream0_IRQHandler                  0x080001b7   Thumb Code     0  startup_stm32f407xx.o(.text)
    DMA1_Stream1_IRQHandler                  0x080001b7   Thumb Code     0  startup_stm32f407xx.o(.text)
    DMA1_Stream2_IRQHandler                  0x080001b7   Thumb Code     0  startup_stm32f407xx.o(.text)
    DMA1_Stream3_IRQHandler                  0x080001b7   Thumb Code     0  startup_stm32f407xx.o(.text)
    DMA1_Stream4_IRQHandler                  0x080001b7   Thumb Code     0  startup_stm32f407xx.o(.text)
    DMA1_Stream5_IRQHandler                  0x080001b7   Thumb Code     0  startup_stm32f407xx.o(.text)
    DMA1_Stream6_IRQHandler                  0x080001b7   Thumb Code     0  startup_stm32f407xx.o(.text)
    DMA1_Stream7_IRQHandler                  0x080001b7   Thumb Code     0  startup_stm32f407xx.o(.text)
    DMA2_Stream0_IRQHandler                  0x080001b7   Thumb Code     0  startup_stm32f407xx.o(.text)
    DMA2_Stream1_IRQHandler                  0x080001b7   Thumb Code     0  startup_stm32f407xx.o(.text)
    DMA2_Stream2_IRQHandler                  0x080001b7   Thumb Code     0  startup_stm32f407xx.o(.text)
    DMA2_Stream3_IRQHandler                  0x080001b7   Thumb Code     0  startup_stm32f407xx.o(.text)
    DMA2_Stream4_IRQHandler                  0x080001b7   Thumb Code     0  startup_stm32f407xx.o(.text)
    DMA2_Stream5_IRQHandler                  0x080001b7   Thumb Code     0  startup_stm32f407xx.o(.text)
    DMA2_Stream6_IRQHandler                  0x080001b7   Thumb Code     0  startup_stm32f407xx.o(.text)
    DMA2_Stream7_IRQHandler                  0x080001b7   Thumb Code     0  startup_stm32f407xx.o(.text)
    ETH_IRQHandler                           0x080001b7   Thumb Code     0  startup_stm32f407xx.o(.text)
    ETH_WKUP_IRQHandler                      0x080001b7   Thumb Code     0  startup_stm32f407xx.o(.text)
    EXTI0_IRQHandler                         0x080001b7   Thumb Code     0  startup_stm32f407xx.o(.text)
    EXTI15_10_IRQHandler                     0x080001b7   Thumb Code     0  startup_stm32f407xx.o(.text)
    EXTI1_IRQHandler                         0x080001b7   Thumb Code     0  startup_stm32f407xx.o(.text)
    EXTI2_IRQHandler                         0x080001b7   Thumb Code     0  startup_stm32f407xx.o(.text)
    EXTI3_IRQHandler                         0x080001b7   Thumb Code     0  startup_stm32f407xx.o(.text)
    EXTI4_IRQHandler                         0x080001b7   Thumb Code     0  startup_stm32f407xx.o(.text)
    EXTI9_5_IRQHandler                       0x080001b7   Thumb Code     0  startup_stm32f407xx.o(.text)
    FLASH_IRQHandler                         0x080001b7   Thumb Code     0  startup_stm32f407xx.o(.text)
    FMC_IRQHandler                           0x080001b7   Thumb Code     0  startup_stm32f407xx.o(.text)
    FPU_IRQHandler                           0x080001b7   Thumb Code     0  startup_stm32f407xx.o(.text)
    HASH_RNG_IRQHandler                      0x080001b7   Thumb Code     0  startup_stm32f407xx.o(.text)
    I2C1_ER_IRQHandler                       0x080001b7   Thumb Code     0  startup_stm32f407xx.o(.text)
    I2C1_EV_IRQHandler                       0x080001b7   Thumb Code     0  startup_stm32f407xx.o(.text)
    I2C2_ER_IRQHandler                       0x080001b7   Thumb Code     0  startup_stm32f407xx.o(.text)
    I2C2_EV_IRQHandler                       0x080001b7   Thumb Code     0  startup_stm32f407xx.o(.text)
    I2C3_ER_IRQHandler                       0x080001b7   Thumb Code     0  startup_stm32f407xx.o(.text)
    I2C3_EV_IRQHandler                       0x080001b7   Thumb Code     0  startup_stm32f407xx.o(.text)
    OTG_FS_IRQHandler                        0x080001b7   Thumb Code     0  startup_stm32f407xx.o(.text)
    OTG_FS_WKUP_IRQHandler                   0x080001b7   Thumb Code     0  startup_stm32f407xx.o(.text)
    OTG_HS_EP1_IN_IRQHandler                 0x080001b7   Thumb Code     0  startup_stm32f407xx.o(.text)
    OTG_HS_EP1_OUT_IRQHandler                0x080001b7   Thumb Code     0  startup_stm32f407xx.o(.text)
    OTG_HS_IRQHandler                        0x080001b7   Thumb Code     0  startup_stm32f407xx.o(.text)
    OTG_HS_WKUP_IRQHandler                   0x080001b7   Thumb Code     0  startup_stm32f407xx.o(.text)
    PVD_IRQHandler                           0x080001b7   Thumb Code     0  startup_stm32f407xx.o(.text)
    RCC_IRQHandler                           0x080001b7   Thumb Code     0  startup_stm32f407xx.o(.text)
    RTC_Alarm_IRQHandler                     0x080001b7   Thumb Code     0  startup_stm32f407xx.o(.text)
    RTC_WKUP_IRQHandler                      0x080001b7   Thumb Code     0  startup_stm32f407xx.o(.text)
    SDIO_IRQHandler                          0x080001b7   Thumb Code     0  startup_stm32f407xx.o(.text)
    SPI1_IRQHandler                          0x080001b7   Thumb Code     0  startup_stm32f407xx.o(.text)
    SPI2_IRQHandler                          0x080001b7   Thumb Code     0  startup_stm32f407xx.o(.text)
    SPI3_IRQHandler                          0x080001b7   Thumb Code     0  startup_stm32f407xx.o(.text)
    TAMP_STAMP_IRQHandler                    0x080001b7   Thumb Code     0  startup_stm32f407xx.o(.text)
    TIM1_BRK_TIM9_IRQHandler                 0x080001b7   Thumb Code     0  startup_stm32f407xx.o(.text)
    TIM1_CC_IRQHandler                       0x080001b7   Thumb Code     0  startup_stm32f407xx.o(.text)
    TIM1_TRG_COM_TIM11_IRQHandler            0x080001b7   Thumb Code     0  startup_stm32f407xx.o(.text)
    TIM1_UP_TIM10_IRQHandler                 0x080001b7   Thumb Code     0  startup_stm32f407xx.o(.text)
    TIM3_IRQHandler                          0x080001b7   Thumb Code     0  startup_stm32f407xx.o(.text)
    TIM5_IRQHandler                          0x080001b7   Thumb Code     0  startup_stm32f407xx.o(.text)
    TIM6_DAC_IRQHandler                      0x080001b7   Thumb Code     0  startup_stm32f407xx.o(.text)
    TIM7_IRQHandler                          0x080001b7   Thumb Code     0  startup_stm32f407xx.o(.text)
    TIM8_BRK_TIM12_IRQHandler                0x080001b7   Thumb Code     0  startup_stm32f407xx.o(.text)
    TIM8_CC_IRQHandler                       0x080001b7   Thumb Code     0  startup_stm32f407xx.o(.text)
    TIM8_UP_TIM13_IRQHandler                 0x080001b7   Thumb Code     0  startup_stm32f407xx.o(.text)
    UART4_IRQHandler                         0x080001b7   Thumb Code     0  startup_stm32f407xx.o(.text)
    UART5_IRQHandler                         0x080001b7   Thumb Code     0  startup_stm32f407xx.o(.text)
    USART3_IRQHandler                        0x080001b7   Thumb Code     0  startup_stm32f407xx.o(.text)
    USART6_IRQHandler                        0x080001b7   Thumb Code     0  startup_stm32f407xx.o(.text)
    WWDG_IRQHandler                          0x080001b7   Thumb Code     0  startup_stm32f407xx.o(.text)
    __aeabi_uldivmod                         0x080001c1   Thumb Code    98  uldiv.o(.text)
    __scatterload                            0x08000225   Thumb Code    28  init.o(.text)
    __scatterload_rt2                        0x08000225   Thumb Code     0  init.o(.text)
    __aeabi_llsl                             0x08000249   Thumb Code    30  llshl.o(.text)
    _ll_shift_l                              0x08000249   Thumb Code     0  llshl.o(.text)
    __aeabi_llsr                             0x08000267   Thumb Code    32  llushr.o(.text)
    _ll_ushift_r                             0x08000267   Thumb Code     0  llushr.o(.text)
    __decompress                             0x08000287   Thumb Code     0  __dczerorl2.o(.text)
    __decompress1                            0x08000287   Thumb Code    86  __dczerorl2.o(.text)
    Bluetooth_control                        0x080002dd   Thumb Code    90  hc05.o(i.Bluetooth_control)
    BusFault_Handler                         0x08000341   Thumb Code     4  stm32f4xx_it.o(i.BusFault_Handler)
    Change_CH1_Speed                         0x08000345   Thumb Code    66  hc05.o(i.Change_CH1_Speed)
    Change_CH2_Speed                         0x0800038d   Thumb Code    64  hc05.o(i.Change_CH2_Speed)
    Change_CH3_Speed                         0x080003d1   Thumb Code    64  hc05.o(i.Change_CH3_Speed)
    Change_CH4_Speed                         0x08000415   Thumb Code    64  hc05.o(i.Change_CH4_Speed)
    Change_Speed                             0x08000459   Thumb Code    30  hc05.o(i.Change_Speed)
    DebugMon_Handler                         0x08000477   Thumb Code     4  stm32f4xx_it.o(i.DebugMon_Handler)
    HAL_GPIO_Init                            0x0800047d   Thumb Code   476  stm32f4xx_hal_gpio.o(i.HAL_GPIO_Init)
    HAL_GPIO_WritePin                        0x08000689   Thumb Code    12  stm32f4xx_hal_gpio.o(i.HAL_GPIO_WritePin)
    HAL_GetTick                              0x08000695   Thumb Code     6  stm32f4xx_hal.o(i.HAL_GetTick)
    HAL_IncTick                              0x080006a1   Thumb Code    12  stm32f4xx_hal.o(i.HAL_IncTick)
    HAL_Init                                 0x080006b1   Thumb Code    54  stm32f4xx_hal.o(i.HAL_Init)
    HAL_InitTick                             0x080006ed   Thumb Code    36  stm32f4xx_hal.o(i.HAL_InitTick)
    HAL_MspInit                              0x08000711   Thumb Code    66  stm32f4xx_hal_msp.o(i.HAL_MspInit)
    HAL_NVIC_EnableIRQ                       0x08000753   Thumb Code    26  stm32f4xx_hal_cortex.o(i.HAL_NVIC_EnableIRQ)
    HAL_NVIC_SetPriority                     0x0800076d   Thumb Code   124  stm32f4xx_hal_cortex.o(i.HAL_NVIC_SetPriority)
    HAL_NVIC_SetPriorityGrouping             0x080007e9   Thumb Code    32  stm32f4xx_hal_cortex.o(i.HAL_NVIC_SetPriorityGrouping)
    HAL_RCC_CSSCallback                      0x08000811   Thumb Code     2  stm32f4xx_hal_rcc.o(i.HAL_RCC_CSSCallback)
    HAL_RCC_ClockConfig                      0x08000815   Thumb Code   412  stm32f4xx_hal_rcc.o(i.HAL_RCC_ClockConfig)
    HAL_RCC_GetHCLKFreq                      0x080009b9   Thumb Code    42  stm32f4xx_hal_rcc.o(i.HAL_RCC_GetHCLKFreq)
    HAL_RCC_GetPCLK1Freq                     0x080009f1   Thumb Code    36  stm32f4xx_hal_rcc.o(i.HAL_RCC_GetPCLK1Freq)
    HAL_RCC_GetPCLK2Freq                     0x08000a1d   Thumb Code    36  stm32f4xx_hal_rcc.o(i.HAL_RCC_GetPCLK2Freq)
    HAL_RCC_GetSysClockFreq                  0x08000a49   Thumb Code   168  stm32f4xx_hal_rcc.o(i.HAL_RCC_GetSysClockFreq)
    HAL_RCC_NMI_IRQHandler                   0x08000afd   Thumb Code    28  stm32f4xx_hal_rcc.o(i.HAL_RCC_NMI_IRQHandler)
    HAL_RCC_OscConfig                        0x08000b1d   Thumb Code   906  stm32f4xx_hal_rcc.o(i.HAL_RCC_OscConfig)
    HAL_SYSTICK_CLKSourceConfig              0x08000eb9   Thumb Code    40  stm32f4xx_hal_cortex.o(i.HAL_SYSTICK_CLKSourceConfig)
    HAL_SYSTICK_Callback                     0x08000ee1   Thumb Code     2  stm32f4xx_hal_cortex.o(i.HAL_SYSTICK_Callback)
    HAL_SYSTICK_Config                       0x08000ee3   Thumb Code    52  stm32f4xx_hal_cortex.o(i.HAL_SYSTICK_Config)
    HAL_SYSTICK_IRQHandler                   0x08000f17   Thumb Code     8  stm32f4xx_hal_cortex.o(i.HAL_SYSTICK_IRQHandler)
    HAL_TIMEx_BreakCallback                  0x08000f1f   Thumb Code     2  stm32f4xx_hal_tim_ex.o(i.HAL_TIMEx_BreakCallback)
    HAL_TIMEx_CommutationCallback            0x08000f21   Thumb Code     2  stm32f4xx_hal_tim_ex.o(i.HAL_TIMEx_CommutationCallback)
    HAL_TIMEx_MasterConfigSynchronization    0x08000f23   Thumb Code    98  stm32f4xx_hal_tim_ex.o(i.HAL_TIMEx_MasterConfigSynchronization)
    HAL_TIM_Base_Init                        0x08000f85   Thumb Code    52  stm32f4xx_hal_tim.o(i.HAL_TIM_Base_Init)
    HAL_TIM_Base_MspInit                     0x08000fb9   Thumb Code   314  tim.o(i.HAL_TIM_Base_MspInit)
    HAL_TIM_Base_Start_IT                    0x08001111   Thumb Code    30  stm32f4xx_hal_tim.o(i.HAL_TIM_Base_Start_IT)
    HAL_TIM_ConfigClockSource                0x0800112f   Thumb Code   306  stm32f4xx_hal_tim.o(i.HAL_TIM_ConfigClockSource)
    HAL_TIM_IC_CaptureCallback               0x08001261   Thumb Code     2  stm32f4xx_hal_tim.o(i.HAL_TIM_IC_CaptureCallback)
    HAL_TIM_IC_ConfigChannel                 0x08001263   Thumb Code   224  stm32f4xx_hal_tim.o(i.HAL_TIM_IC_ConfigChannel)
    HAL_TIM_IC_Init                          0x08001343   Thumb Code    52  stm32f4xx_hal_tim.o(i.HAL_TIM_IC_Init)
    HAL_TIM_IC_MspInit                       0x08001377   Thumb Code     2  stm32f4xx_hal_tim.o(i.HAL_TIM_IC_MspInit)
    HAL_TIM_IRQHandler                       0x08001379   Thumb Code   406  stm32f4xx_hal_tim.o(i.HAL_TIM_IRQHandler)
    HAL_TIM_MspPostInit                      0x08001511   Thumb Code    80  tim.o(i.HAL_TIM_MspPostInit)
    HAL_TIM_OC_DelayElapsedCallback          0x08001571   Thumb Code     2  stm32f4xx_hal_tim.o(i.HAL_TIM_OC_DelayElapsedCallback)
    HAL_TIM_PWM_ConfigChannel                0x08001573   Thumb Code   264  stm32f4xx_hal_tim.o(i.HAL_TIM_PWM_ConfigChannel)
    HAL_TIM_PWM_Init                         0x0800167b   Thumb Code    52  stm32f4xx_hal_tim.o(i.HAL_TIM_PWM_Init)
    HAL_TIM_PWM_MspInit                      0x080016af   Thumb Code     2  stm32f4xx_hal_tim.o(i.HAL_TIM_PWM_MspInit)
    HAL_TIM_PWM_PulseFinishedCallback        0x080016b1   Thumb Code     2  stm32f4xx_hal_tim.o(i.HAL_TIM_PWM_PulseFinishedCallback)
    HAL_TIM_PWM_Start                        0x080016b5   Thumb Code    68  stm32f4xx_hal_tim.o(i.HAL_TIM_PWM_Start)
    HAL_TIM_PeriodElapsedCallback            0x08001701   Thumb Code     2  stm32f4xx_hal_tim.o(i.HAL_TIM_PeriodElapsedCallback)
    HAL_TIM_TriggerCallback                  0x08001703   Thumb Code     2  stm32f4xx_hal_tim.o(i.HAL_TIM_TriggerCallback)
    HAL_UART_ErrorCallback                   0x08001705   Thumb Code     2  stm32f4xx_hal_uart.o(i.HAL_UART_ErrorCallback)
    HAL_UART_GetState                        0x08001707   Thumb Code    20  stm32f4xx_hal_uart.o(i.HAL_UART_GetState)
    HAL_UART_IRQHandler                      0x0800171b   Thumb Code   308  stm32f4xx_hal_uart.o(i.HAL_UART_IRQHandler)
    HAL_UART_Init                            0x0800184f   Thumb Code   114  stm32f4xx_hal_uart.o(i.HAL_UART_Init)
    HAL_UART_MspInit                         0x080018c1   Thumb Code    94  usart.o(i.HAL_UART_MspInit)
    HAL_UART_Receive_IT                      0x0800192d   Thumb Code   112  stm32f4xx_hal_uart.o(i.HAL_UART_Receive_IT)
    HAL_UART_RxCpltCallback                  0x0800199d   Thumb Code   120  z_usart.o(i.HAL_UART_RxCpltCallback)
    HAL_UART_TxCpltCallback                  0x08001a25   Thumb Code     2  stm32f4xx_hal_uart.o(i.HAL_UART_TxCpltCallback)
    HardFault_Handler                        0x08001a27   Thumb Code     4  stm32f4xx_it.o(i.HardFault_Handler)
    MX_GPIO_Init                             0x08001a2d   Thumb Code   446  gpio.o(i.MX_GPIO_Init)
    MX_TIM14_Init                            0x08001c09   Thumb Code    64  tim.o(i.MX_TIM14_Init)
    MX_TIM2_Init                             0x08001c51   Thumb Code    66  tim.o(i.MX_TIM2_Init)
    MX_TIM3_Init                             0x08001c9d   Thumb Code   184  tim.o(i.MX_TIM3_Init)
    MX_TIM6_Init                             0x08001d5d   Thumb Code    44  tim.o(i.MX_TIM6_Init)
    MX_TIM7_Init                             0x08001d91   Thumb Code    60  tim.o(i.MX_TIM7_Init)
    MX_TIM9_Init                             0x08001dd5   Thumb Code    94  tim.o(i.MX_TIM9_Init)
    MX_USART2_UART_Init                      0x08001e3d   Thumb Code    40  usart.o(i.MX_USART2_UART_Init)
    MemManage_Handler                        0x08001e6d   Thumb Code     4  stm32f4xx_it.o(i.MemManage_Handler)
    NMI_Handler                              0x08001e71   Thumb Code     8  stm32f4xx_it.o(i.NMI_Handler)
    Not_Find_Black                           0x08001eb1   Thumb Code    70  track.o(i.Not_Find_Black)
    R1_Rotation                              0x08001f05   Thumb Code    24  motor.o(i.R1_Rotation)
    R2_Rotation                              0x08001f21   Thumb Code    24  motor.o(i.R2_Rotation)
    Stop                                     0x08001f3d   Thumb Code    84  motor.o(i.Stop)
    SysTick_Handler                          0x08001f99   Thumb Code    12  stm32f4xx_it.o(i.SysTick_Handler)
    SystemClock_Config                       0x08001fa5   Thumb Code   176  main.o(i.SystemClock_Config)
    SystemInit                               0x0800205d   Thumb Code    82  system_stm32f4xx.o(i.SystemInit)
    TIM2_IRQHandler                          0x080020c1   Thumb Code    14  stm32f4xx_it.o(i.TIM2_IRQHandler)
    TIM4_IRQHandler                          0x080020d5   Thumb Code    58  usmart.o(i.TIM4_IRQHandler)
    TIM8_TRG_COM_TIM14_IRQHandler            0x08002119   Thumb Code    10  stm32f4xx_it.o(i.TIM8_TRG_COM_TIM14_IRQHandler)
    TIM_Base_SetConfig                       0x08002129   Thumb Code   184  stm32f4xx_hal_tim.o(i.TIM_Base_SetConfig)
    TIM_CCxChannelCmd                        0x0800220d   Thumb Code    28  stm32f4xx_hal_tim.o(i.TIM_CCxChannelCmd)
    TIM_OC2_SetConfig                        0x080022c5   Thumb Code   112  stm32f4xx_hal_tim.o(i.TIM_OC2_SetConfig)
    TIM_TI1_SetConfig                        0x08002441   Thumb Code   122  stm32f4xx_hal_tim.o(i.TIM_TI1_SetConfig)
    Timer4_Init                              0x080025c1   Thumb Code    84  usmart.o(i.Timer4_Init)
    Turnback                                 0x08002621   Thumb Code    84  motor.o(i.Turnback)
    Turnfoward                               0x0800267d   Thumb Code    84  motor.o(i.Turnfoward)
    Turnleft                                 0x080026d9   Thumb Code    84  motor.o(i.Turnleft)
    Turnright                                0x08002735   Thumb Code    84  motor.o(i.Turnright)
    USART1_IRQHandler                        0x08002c29   Thumb Code    56  z_usart.o(i.USART1_IRQHandler)
    USART2_IRQHandler                        0x08002c69   Thumb Code    14  stm32f4xx_it.o(i.USART2_IRQHandler)
    UsageFault_Handler                       0x08002c7d   Thumb Code     4  stm32f4xx_it.o(i.UsageFault_Handler)
    __0printf$8                              0x08002c81   Thumb Code    22  printf8.o(i.__0printf$8)
    __1printf$8                              0x08002c81   Thumb Code     0  printf8.o(i.__0printf$8)
    __2printf                                0x08002c81   Thumb Code     0  printf8.o(i.__0printf$8)
    __scatterload_copy                       0x08002ca1   Thumb Code    14  handlers.o(i.__scatterload_copy)
    __scatterload_null                       0x08002caf   Thumb Code     2  handlers.o(i.__scatterload_null)
    __scatterload_zeroinit                   0x08002cb1   Thumb Code    14  handlers.o(i.__scatterload_zeroinit)
    fputc                                    0x08003125   Thumb Code    22  z_usart.o(i.fputc)
    main                                     0x08003141   Thumb Code    48  main.o(i.main)
    read_addr                                0x08003171   Thumb Code     6  usmart.o(i.read_addr)
    usmart_cmd_rec                           0x08003179   Thumb Code   170  usmart.o(i.usmart_cmd_rec)
    usmart_exe                               0x08003229   Thumb Code   632  usmart.o(i.usmart_exe)
    usmart_get_aparm                         0x080034fd   Thumb Code   212  usmart_str.o(i.usmart_get_aparm)
    usmart_get_cmdname                       0x080035d1   Thumb Code    54  usmart_str.o(i.usmart_get_cmdname)
    usmart_get_fname                         0x08003609   Thumb Code   440  usmart_str.o(i.usmart_get_fname)
    usmart_get_fparam                        0x080037c9   Thumb Code   262  usmart_str.o(i.usmart_get_fparam)
    usmart_get_parmpos                       0x080038d5   Thumb Code    26  usmart_str.o(i.usmart_get_parmpos)
    usmart_get_runtime                       0x080038f5   Thumb Code    58  usmart.o(i.usmart_get_runtime)
    usmart_init                              0x08003939   Thumb Code    36  usmart.o(i.usmart_init)
    usmart_pow                               0x08003961   Thumb Code    22  usmart_str.o(i.usmart_pow)
    usmart_reset_runtime                     0x08003979   Thumb Code    44  usmart.o(i.usmart_reset_runtime)
    usmart_scan                              0x080039ad   Thumb Code   120  usmart.o(i.usmart_scan)
    usmart_search_nextc                      0x08003a69   Thumb Code    22  usmart_str.o(i.usmart_search_nextc)
    usmart_str2num                           0x08003a7f   Thumb Code   262  usmart_str.o(i.usmart_str2num)
    usmart_strcmp                            0x08003b85   Thumb Code    34  usmart_str.o(i.usmart_strcmp)
    usmart_strcopy                           0x08003ba7   Thumb Code    22  usmart_str.o(i.usmart_strcopy)
    usmart_strlen                            0x08003bbd   Thumb Code    24  usmart_str.o(i.usmart_strlen)
    usmart_sys_cmd_exe                       0x08003bd5   Thumb Code  1570  usmart.o(i.usmart_sys_cmd_exe)
    write_addr                               0x080042c9   Thumb Code     4  usmart.o(i.write_addr)
    APBAHBPrescTable                         0x080042cc   Data          16  stm32f4xx_hal_rcc.o(.constdata)
    Region$$Table$$Base                      0x08004370   Number         0  anon$$obj.o(Region$$Table)
    Region$$Table$$Limit                     0x08004390   Number         0  anon$$obj.o(Region$$Table)
    __stdout                                 0x20000000   Data           4  z_usart.o(.data)
    USART_RX_STA                             0x20000004   Data           2  z_usart.o(.data)
    aRxBuffer                                0x20000006   Data           1  z_usart.o(.data)
    Track_Input                              0x20000008   Data           2  track.o(.data)
    Not_Find_Black_flag                      0x2000000a   Data           2  track.o(.data)
    Stop_Flag                                0x2000000c   Data           1  track.o(.data)
    sys_cmd_tab                              0x20000010   Data          28  usmart.o(.data)
    usmart_nametab                           0x2000002c   Data          32  usmart_config.o(.data)
    usmart_dev                               0x2000004c   Data         244  usmart_config.o(.data)
    uwTick                                   0x20000140   Data           4  stm32f4xx_hal.o(.data)
    SystemCoreClock                          0x20000144   Data           4  system_stm32f4xx.o(.data)
    htim2                                    0x20000148   Data          60  tim.o(.bss)
    htim3                                    0x20000184   Data          60  tim.o(.bss)
    htim6                                    0x200001c0   Data          60  tim.o(.bss)
    htim7                                    0x200001fc   Data          60  tim.o(.bss)
    htim9                                    0x20000238   Data          60  tim.o(.bss)
    htim14                                   0x20000274   Data          60  tim.o(.bss)
    huart2                                   0x200002b0   Data          64  usart.o(.bss)
    USART_RX_BUF                             0x200002f0   Data         200  z_usart.o(.bss)
    UART1_Handler                            0x200003b8   Data          64  z_usart.o(.bss)
    TIM4_Handler                             0x200003f8   Data          60  usmart.o(.bss)
    __initial_sp                             0x20000838   Data           0  startup_stm32f407xx.o(STACK)



==============================================================================

Memory Map of the image

  Image Entry point : 0x08000189

  Load Region LR_IROM1 (Base: 0x08000000, Size: 0x000044d8, Max: 0x00100000, ABSOLUTE, COMPRESSED[0x000043dc])

    Execution Region ER_IROM1 (Exec base: 0x08000000, Load base: 0x08000000, Size: 0x00004390, Max: 0x00100000, ABSOLUTE)

    Exec Addr    Load Addr    Size         Type   Attr      Idx    E Section Name        Object

    0x08000000   0x08000000   0x00000188   Data   RO         3171    RESET               startup_stm32f407xx.o
    0x08000188   0x08000188   0x00000000   Code   RO         3294  * .ARM.Collect$$$$00000000  mc_w.l(entry.o)
    0x08000188   0x08000188   0x00000004   Code   RO         3570    .ARM.Collect$$$$00000001  mc_w.l(entry2.o)
    0x0800018c   0x0800018c   0x00000004   Code   RO         3573    .ARM.Collect$$$$00000004  mc_w.l(entry5.o)
    0x08000190   0x08000190   0x00000000   Code   RO         3575    .ARM.Collect$$$$00000008  mc_w.l(entry7b.o)
    0x08000190   0x08000190   0x00000000   Code   RO         3577    .ARM.Collect$$$$0000000A  mc_w.l(entry8b.o)
    0x08000190   0x08000190   0x00000008   Code   RO         3578    .ARM.Collect$$$$0000000B  mc_w.l(entry9a.o)
    0x08000198   0x08000198   0x00000000   Code   RO         3580    .ARM.Collect$$$$0000000D  mc_w.l(entry10a.o)
    0x08000198   0x08000198   0x00000000   Code   RO         3582    .ARM.Collect$$$$0000000F  mc_w.l(entry11a.o)
    0x08000198   0x08000198   0x00000004   Code   RO         3571    .ARM.Collect$$$$00002712  mc_w.l(entry2.o)
    0x0800019c   0x0800019c   0x00000024   Code   RO         3172    .text               startup_stm32f407xx.o
    0x080001c0   0x080001c0   0x00000062   Code   RO         3586    .text               mc_w.l(uldiv.o)
    0x08000222   0x08000222   0x00000002   PAD
    0x08000224   0x08000224   0x00000024   Code   RO         3599    .text               mc_w.l(init.o)
    0x08000248   0x08000248   0x0000001e   Code   RO         3601    .text               mc_w.l(llshl.o)
    0x08000266   0x08000266   0x00000020   Code   RO         3603    .text               mc_w.l(llushr.o)
    0x08000286   0x08000286   0x00000056   Code   RO         3615    .text               mc_w.l(__dczerorl2.o)
    0x080002dc   0x080002dc   0x00000064   Code   RO          954    i.Bluetooth_control  hc05.o
    0x08000340   0x08000340   0x00000004   Code   RO          323    i.BusFault_Handler  stm32f4xx_it.o
    0x08000344   0x08000344   0x00000048   Code   RO          955    i.Change_CH1_Speed  hc05.o
    0x0800038c   0x0800038c   0x00000044   Code   RO          956    i.Change_CH2_Speed  hc05.o
    0x080003d0   0x080003d0   0x00000044   Code   RO          957    i.Change_CH3_Speed  hc05.o
    0x08000414   0x08000414   0x00000044   Code   RO          958    i.Change_CH4_Speed  hc05.o
    0x08000458   0x08000458   0x0000001e   Code   RO          959    i.Change_Speed      hc05.o
    0x08000476   0x08000476   0x00000004   Code   RO          324    i.DebugMon_Handler  stm32f4xx_it.o
    0x0800047a   0x0800047a   0x00000002   PAD
    0x0800047c   0x0800047c   0x0000020c   Code   RO         2294    i.HAL_GPIO_Init     stm32f4xx_hal_gpio.o
    0x08000688   0x08000688   0x0000000c   Code   RO         2298    i.HAL_GPIO_WritePin  stm32f4xx_hal_gpio.o
    0x08000694   0x08000694   0x0000000c   Code   RO         2796    i.HAL_GetTick       stm32f4xx_hal.o
    0x080006a0   0x080006a0   0x00000010   Code   RO         2797    i.HAL_IncTick       stm32f4xx_hal.o
    0x080006b0   0x080006b0   0x0000003c   Code   RO         2798    i.HAL_Init          stm32f4xx_hal.o
    0x080006ec   0x080006ec   0x00000024   Code   RO         2799    i.HAL_InitTick      stm32f4xx_hal.o
    0x08000710   0x08000710   0x00000042   Code   RO          402    i.HAL_MspInit       stm32f4xx_hal_msp.o
    0x08000752   0x08000752   0x0000001a   Code   RO         2658    i.HAL_NVIC_EnableIRQ  stm32f4xx_hal_cortex.o
    0x0800076c   0x0800076c   0x0000007c   Code   RO         2664    i.HAL_NVIC_SetPriority  stm32f4xx_hal_cortex.o
    0x080007e8   0x080007e8   0x00000028   Code   RO         2665    i.HAL_NVIC_SetPriorityGrouping  stm32f4xx_hal_cortex.o
    0x08000810   0x08000810   0x00000002   Code   RO         1909    i.HAL_RCC_CSSCallback  stm32f4xx_hal_rcc.o
    0x08000812   0x08000812   0x00000002   PAD
    0x08000814   0x08000814   0x000001a4   Code   RO         1910    i.HAL_RCC_ClockConfig  stm32f4xx_hal_rcc.o
    0x080009b8   0x080009b8   0x00000038   Code   RO         1915    i.HAL_RCC_GetHCLKFreq  stm32f4xx_hal_rcc.o
    0x080009f0   0x080009f0   0x0000002c   Code   RO         1917    i.HAL_RCC_GetPCLK1Freq  stm32f4xx_hal_rcc.o
    0x08000a1c   0x08000a1c   0x0000002c   Code   RO         1918    i.HAL_RCC_GetPCLK2Freq  stm32f4xx_hal_rcc.o
    0x08000a48   0x08000a48   0x000000b4   Code   RO         1919    i.HAL_RCC_GetSysClockFreq  stm32f4xx_hal_rcc.o
    0x08000afc   0x08000afc   0x00000020   Code   RO         1921    i.HAL_RCC_NMI_IRQHandler  stm32f4xx_hal_rcc.o
    0x08000b1c   0x08000b1c   0x0000039c   Code   RO         1922    i.HAL_RCC_OscConfig  stm32f4xx_hal_rcc.o
    0x08000eb8   0x08000eb8   0x00000028   Code   RO         2667    i.HAL_SYSTICK_CLKSourceConfig  stm32f4xx_hal_cortex.o
    0x08000ee0   0x08000ee0   0x00000002   Code   RO         2668    i.HAL_SYSTICK_Callback  stm32f4xx_hal_cortex.o
    0x08000ee2   0x08000ee2   0x00000034   Code   RO         2669    i.HAL_SYSTICK_Config  stm32f4xx_hal_cortex.o
    0x08000f16   0x08000f16   0x00000008   Code   RO         2670    i.HAL_SYSTICK_IRQHandler  stm32f4xx_hal_cortex.o
    0x08000f1e   0x08000f1e   0x00000002   Code   RO         1670    i.HAL_TIMEx_BreakCallback  stm32f4xx_hal_tim_ex.o
    0x08000f20   0x08000f20   0x00000002   Code   RO         1671    i.HAL_TIMEx_CommutationCallback  stm32f4xx_hal_tim_ex.o
    0x08000f22   0x08000f22   0x00000062   Code   RO         1687    i.HAL_TIMEx_MasterConfigSynchronization  stm32f4xx_hal_tim_ex.o
    0x08000f84   0x08000f84   0x00000034   Code   RO         1031    i.HAL_TIM_Base_Init  stm32f4xx_hal_tim.o
    0x08000fb8   0x08000fb8   0x00000158   Code   RO          204    i.HAL_TIM_Base_MspInit  tim.o
    0x08001110   0x08001110   0x0000001e   Code   RO         1036    i.HAL_TIM_Base_Start_IT  stm32f4xx_hal_tim.o
    0x0800112e   0x0800112e   0x00000132   Code   RO         1040    i.HAL_TIM_ConfigClockSource  stm32f4xx_hal_tim.o
    0x08001260   0x08001260   0x00000002   Code   RO         1060    i.HAL_TIM_IC_CaptureCallback  stm32f4xx_hal_tim.o
    0x08001262   0x08001262   0x000000e0   Code   RO         1061    i.HAL_TIM_IC_ConfigChannel  stm32f4xx_hal_tim.o
    0x08001342   0x08001342   0x00000034   Code   RO         1064    i.HAL_TIM_IC_Init   stm32f4xx_hal_tim.o
    0x08001376   0x08001376   0x00000002   Code   RO         1066    i.HAL_TIM_IC_MspInit  stm32f4xx_hal_tim.o
    0x08001378   0x08001378   0x00000196   Code   RO         1073    i.HAL_TIM_IRQHandler  stm32f4xx_hal_tim.o
    0x0800150e   0x0800150e   0x00000002   PAD
    0x08001510   0x08001510   0x00000060   Code   RO          205    i.HAL_TIM_MspPostInit  tim.o
    0x08001570   0x08001570   0x00000002   Code   RO         1076    i.HAL_TIM_OC_DelayElapsedCallback  stm32f4xx_hal_tim.o
    0x08001572   0x08001572   0x00000108   Code   RO         1097    i.HAL_TIM_PWM_ConfigChannel  stm32f4xx_hal_tim.o
    0x0800167a   0x0800167a   0x00000034   Code   RO         1100    i.HAL_TIM_PWM_Init  stm32f4xx_hal_tim.o
    0x080016ae   0x080016ae   0x00000002   Code   RO         1102    i.HAL_TIM_PWM_MspInit  stm32f4xx_hal_tim.o
    0x080016b0   0x080016b0   0x00000002   Code   RO         1103    i.HAL_TIM_PWM_PulseFinishedCallback  stm32f4xx_hal_tim.o
    0x080016b2   0x080016b2   0x00000002   PAD
    0x080016b4   0x080016b4   0x0000004c   Code   RO         1104    i.HAL_TIM_PWM_Start  stm32f4xx_hal_tim.o
    0x08001700   0x08001700   0x00000002   Code   RO         1110    i.HAL_TIM_PeriodElapsedCallback  stm32f4xx_hal_tim.o
    0x08001702   0x08001702   0x00000002   Code   RO         1114    i.HAL_TIM_TriggerCallback  stm32f4xx_hal_tim.o
    0x08001704   0x08001704   0x00000002   Code   RO         2942    i.HAL_UART_ErrorCallback  stm32f4xx_hal_uart.o
    0x08001706   0x08001706   0x00000014   Code   RO         2944    i.HAL_UART_GetState  stm32f4xx_hal_uart.o
    0x0800171a   0x0800171a   0x00000134   Code   RO         2945    i.HAL_UART_IRQHandler  stm32f4xx_hal_uart.o
    0x0800184e   0x0800184e   0x00000072   Code   RO         2946    i.HAL_UART_Init     stm32f4xx_hal_uart.o
    0x080018c0   0x080018c0   0x0000006c   Code   RO          282    i.HAL_UART_MspInit  usart.o
    0x0800192c   0x0800192c   0x00000070   Code   RO         2951    i.HAL_UART_Receive_IT  stm32f4xx_hal_uart.o
    0x0800199c   0x0800199c   0x00000088   Code   RO          498    i.HAL_UART_RxCpltCallback  z_usart.o
    0x08001a24   0x08001a24   0x00000002   Code   RO         2957    i.HAL_UART_TxCpltCallback  stm32f4xx_hal_uart.o
    0x08001a26   0x08001a26   0x00000004   Code   RO          325    i.HardFault_Handler  stm32f4xx_it.o
    0x08001a2a   0x08001a2a   0x00000002   PAD
    0x08001a2c   0x08001a2c   0x000001dc   Code   RO          179    i.MX_GPIO_Init      gpio.o
    0x08001c08   0x08001c08   0x00000048   Code   RO          206    i.MX_TIM14_Init     tim.o
    0x08001c50   0x08001c50   0x0000004c   Code   RO          207    i.MX_TIM2_Init      tim.o
    0x08001c9c   0x08001c9c   0x000000c0   Code   RO          208    i.MX_TIM3_Init      tim.o
    0x08001d5c   0x08001d5c   0x00000034   Code   RO          209    i.MX_TIM6_Init      tim.o
    0x08001d90   0x08001d90   0x00000044   Code   RO          210    i.MX_TIM7_Init      tim.o
    0x08001dd4   0x08001dd4   0x00000068   Code   RO          211    i.MX_TIM9_Init      tim.o
    0x08001e3c   0x08001e3c   0x00000030   Code   RO          283    i.MX_USART2_UART_Init  usart.o
    0x08001e6c   0x08001e6c   0x00000004   Code   RO          326    i.MemManage_Handler  stm32f4xx_it.o
    0x08001e70   0x08001e70   0x00000008   Code   RO          327    i.NMI_Handler       stm32f4xx_it.o
    0x08001e78   0x08001e78   0x00000010   Code   RO         2671    i.NVIC_GetPriorityGrouping  stm32f4xx_hal_cortex.o
    0x08001e88   0x08001e88   0x00000028   Code   RO         2672    i.NVIC_SetPriority  stm32f4xx_hal_cortex.o
    0x08001eb0   0x08001eb0   0x00000054   Code   RO          704    i.Not_Find_Black    track.o
    0x08001f04   0x08001f04   0x0000001c   Code   RO          592    i.R1_Rotation       motor.o
    0x08001f20   0x08001f20   0x0000001c   Code   RO          593    i.R2_Rotation       motor.o
    0x08001f3c   0x08001f3c   0x0000005c   Code   RO          594    i.Stop              motor.o
    0x08001f98   0x08001f98   0x0000000c   Code   RO          328    i.SysTick_Handler   stm32f4xx_it.o
    0x08001fa4   0x08001fa4   0x000000b8   Code   RO            4    i.SystemClock_Config  main.o
    0x0800205c   0x0800205c   0x00000064   Code   RO         3180    i.SystemInit        system_stm32f4xx.o
    0x080020c0   0x080020c0   0x00000014   Code   RO          329    i.TIM2_IRQHandler   stm32f4xx_it.o
    0x080020d4   0x080020d4   0x00000044   Code   RO          749    i.TIM4_IRQHandler   usmart.o
    0x08002118   0x08002118   0x00000010   Code   RO          330    i.TIM8_TRG_COM_TIM14_IRQHandler  stm32f4xx_it.o
    0x08002128   0x08002128   0x000000e4   Code   RO         1115    i.TIM_Base_SetConfig  stm32f4xx_hal_tim.o
    0x0800220c   0x0800220c   0x0000001c   Code   RO         1116    i.TIM_CCxChannelCmd  stm32f4xx_hal_tim.o
    0x08002228   0x08002228   0x00000018   Code   RO         1122    i.TIM_ETR_SetConfig  stm32f4xx_hal_tim.o
    0x08002240   0x08002240   0x00000014   Code   RO         1123    i.TIM_ITRx_SetConfig  stm32f4xx_hal_tim.o
    0x08002254   0x08002254   0x00000070   Code   RO         1124    i.TIM_OC1_SetConfig  stm32f4xx_hal_tim.o
    0x080022c4   0x080022c4   0x00000078   Code   RO         1125    i.TIM_OC2_SetConfig  stm32f4xx_hal_tim.o
    0x0800233c   0x0800233c   0x00000078   Code   RO         1126    i.TIM_OC3_SetConfig  stm32f4xx_hal_tim.o
    0x080023b4   0x080023b4   0x00000060   Code   RO         1127    i.TIM_OC4_SetConfig  stm32f4xx_hal_tim.o
    0x08002414   0x08002414   0x0000002a   Code   RO         1129    i.TIM_TI1_ConfigInputStage  stm32f4xx_hal_tim.o
    0x0800243e   0x0800243e   0x00000002   PAD
    0x08002440   0x08002440   0x00000098   Code   RO         1130    i.TIM_TI1_SetConfig  stm32f4xx_hal_tim.o
    0x080024d8   0x080024d8   0x0000002c   Code   RO         1131    i.TIM_TI2_ConfigInputStage  stm32f4xx_hal_tim.o
    0x08002504   0x08002504   0x0000003e   Code   RO         1132    i.TIM_TI2_SetConfig  stm32f4xx_hal_tim.o
    0x08002542   0x08002542   0x0000003c   Code   RO         1133    i.TIM_TI3_SetConfig  stm32f4xx_hal_tim.o
    0x0800257e   0x0800257e   0x00000040   Code   RO         1134    i.TIM_TI4_SetConfig  stm32f4xx_hal_tim.o
    0x080025be   0x080025be   0x00000002   PAD
    0x080025c0   0x080025c0   0x00000060   Code   RO          750    i.Timer4_Init       usmart.o
    0x08002620   0x08002620   0x0000005c   Code   RO          595    i.Turnback          motor.o
    0x0800267c   0x0800267c   0x0000005c   Code   RO          596    i.Turnfoward        motor.o
    0x080026d8   0x080026d8   0x0000005c   Code   RO          597    i.Turnleft          motor.o
    0x08002734   0x08002734   0x0000005c   Code   RO          598    i.Turnright         motor.o
    0x08002790   0x08002790   0x00000020   Code   RO         2964    i.UART_EndTransmit_IT  stm32f4xx_hal_uart.o
    0x080027b0   0x080027b0   0x000000a6   Code   RO         2965    i.UART_Receive_IT   stm32f4xx_hal_uart.o
    0x08002856   0x08002856   0x00000002   PAD
    0x08002858   0x08002858   0x00000368   Code   RO         2966    i.UART_SetConfig    stm32f4xx_hal_uart.o
    0x08002bc0   0x08002bc0   0x00000068   Code   RO         2967    i.UART_Transmit_IT  stm32f4xx_hal_uart.o
    0x08002c28   0x08002c28   0x00000040   Code   RO          499    i.USART1_IRQHandler  z_usart.o
    0x08002c68   0x08002c68   0x00000014   Code   RO          331    i.USART2_IRQHandler  stm32f4xx_it.o
    0x08002c7c   0x08002c7c   0x00000004   Code   RO          332    i.UsageFault_Handler  stm32f4xx_it.o
    0x08002c80   0x08002c80   0x00000020   Code   RO         3506    i.__0printf$8       mc_w.l(printf8.o)
    0x08002ca0   0x08002ca0   0x0000000e   Code   RO         3609    i.__scatterload_copy  mc_w.l(handlers.o)
    0x08002cae   0x08002cae   0x00000002   Code   RO         3610    i.__scatterload_null  mc_w.l(handlers.o)
    0x08002cb0   0x08002cb0   0x0000000e   Code   RO         3611    i.__scatterload_zeroinit  mc_w.l(handlers.o)
    0x08002cbe   0x08002cbe   0x00000002   PAD
    0x08002cc0   0x08002cc0   0x00000410   Code   RO         3513    i._printf_core      mc_w.l(printf8.o)
    0x080030d0   0x080030d0   0x00000024   Code   RO         3514    i._printf_post_padding  mc_w.l(printf8.o)
    0x080030f4   0x080030f4   0x0000002e   Code   RO         3515    i._printf_pre_padding  mc_w.l(printf8.o)
    0x08003122   0x08003122   0x00000002   PAD
    0x08003124   0x08003124   0x0000001c   Code   RO          501    i.fputc             z_usart.o
    0x08003140   0x08003140   0x00000030   Code   RO            5    i.main              main.o
    0x08003170   0x08003170   0x00000006   Code   RO          751    i.read_addr         usmart.o
    0x08003176   0x08003176   0x00000002   PAD
    0x08003178   0x08003178   0x000000b0   Code   RO          752    i.usmart_cmd_rec    usmart.o
    0x08003228   0x08003228   0x000002d4   Code   RO          753    i.usmart_exe        usmart.o
    0x080034fc   0x080034fc   0x000000d4   Code   RO          870    i.usmart_get_aparm  usmart_str.o
    0x080035d0   0x080035d0   0x00000036   Code   RO          871    i.usmart_get_cmdname  usmart_str.o
    0x08003606   0x08003606   0x00000002   PAD
    0x08003608   0x08003608   0x000001c0   Code   RO          872    i.usmart_get_fname  usmart_str.o
    0x080037c8   0x080037c8   0x0000010c   Code   RO          873    i.usmart_get_fparam  usmart_str.o
    0x080038d4   0x080038d4   0x00000020   Code   RO          874    i.usmart_get_parmpos  usmart_str.o
    0x080038f4   0x080038f4   0x00000044   Code   RO          754    i.usmart_get_runtime  usmart.o
    0x08003938   0x08003938   0x00000028   Code   RO          755    i.usmart_init       usmart.o
    0x08003960   0x08003960   0x00000016   Code   RO          875    i.usmart_pow        usmart_str.o
    0x08003976   0x08003976   0x00000002   PAD
    0x08003978   0x08003978   0x00000034   Code   RO          756    i.usmart_reset_runtime  usmart.o
    0x080039ac   0x080039ac   0x000000bc   Code   RO          757    i.usmart_scan       usmart.o
    0x08003a68   0x08003a68   0x00000016   Code   RO          876    i.usmart_search_nextc  usmart_str.o
    0x08003a7e   0x08003a7e   0x00000106   Code   RO          877    i.usmart_str2num    usmart_str.o
    0x08003b84   0x08003b84   0x00000022   Code   RO          878    i.usmart_strcmp     usmart_str.o
    0x08003ba6   0x08003ba6   0x00000016   Code   RO          879    i.usmart_strcopy    usmart_str.o
    0x08003bbc   0x08003bbc   0x00000018   Code   RO          880    i.usmart_strlen     usmart_str.o
    0x08003bd4   0x08003bd4   0x000006f4   Code   RO          758    i.usmart_sys_cmd_exe  usmart.o
    0x080042c8   0x080042c8   0x00000004   Code   RO          759    i.write_addr        usmart.o
    0x080042cc   0x080042cc   0x00000010   Data   RO         1923    .constdata          stm32f4xx_hal_rcc.o
    0x080042dc   0x080042dc   0x00000028   Data   RO          761    .conststring        usmart.o
    0x08004304   0x08004304   0x0000006c   Data   RO          845    .conststring        usmart_config.o
    0x08004370   0x08004370   0x00000020   Data   RO         3607    Region$$Table       anon$$obj.o


    Execution Region RW_IRAM1 (Exec base: 0x20000000, Load base: 0x08004390, Size: 0x00000838, Max: 0x00020000, ABSOLUTE, COMPRESSED[0x0000004c])

    Exec Addr    Load Addr    Size         Type   Attr      Idx    E Section Name        Object

    0x20000000   COMPRESSED   0x00000007   Data   RW          504    .data               z_usart.o
    0x20000007   COMPRESSED   0x00000001   PAD
    0x20000008   COMPRESSED   0x00000005   Data   RW          707    .data               track.o
    0x2000000d   COMPRESSED   0x00000003   PAD
    0x20000010   COMPRESSED   0x0000001c   Data   RW          762    .data               usmart.o
    0x2000002c   COMPRESSED   0x00000114   Data   RW          846    .data               usmart_config.o
    0x20000140   COMPRESSED   0x00000004   Data   RW         2804    .data               stm32f4xx_hal.o
    0x20000144   COMPRESSED   0x00000004   Data   RW         3182    .data               system_stm32f4xx.o
    0x20000148        -       0x00000168   Zero   RW          212    .bss                tim.o
    0x200002b0        -       0x00000040   Zero   RW          284    .bss                usart.o
    0x200002f0        -       0x00000108   Zero   RW          503    .bss                z_usart.o
    0x200003f8        -       0x0000003c   Zero   RW          760    .bss                usmart.o
    0x20000434   COMPRESSED   0x00000004   PAD
    0x20000438        -       0x00000400   Zero   RW         3169    STACK               startup_stm32f407xx.o


==============================================================================

Image component sizes


      Code (inc. data)   RO Data    RW Data    ZI Data      Debug   Object Name

       476         30          0          0          0       1155   gpio.o
       406         36          0          0          0       3267   hc05.o
       232          8          0          0          0     374928   main.o
       516         48          0          0          0       3210   motor.o
        36          8        392          0       1024        788   startup_stm32f407xx.o
       124         16          0          4          0       3527   stm32f4xx_hal.o
       348         22          0          0          0      32473   stm32f4xx_hal_cortex.o
       536         48          0          0          0       2368   stm32f4xx_hal_gpio.o
        66          0          0          0          0        486   stm32f4xx_hal_msp.o
      1702         72         16          0          0       6650   stm32f4xx_hal_rcc.o
      2648        118          0          0          0      21338   stm32f4xx_hal_tim.o
       102          0          0          0          0       2274   stm32f4xx_hal_tim_ex.o
      1732          8          0          0          0       7267   stm32f4xx_hal_uart.o
        96         18          0          0          0       4573   stm32f4xx_it.o
         0          0          0          0          0       2432   sys.o
       100         18          0          4          0       1053   system_stm32f4xx.o
      1004         98          0          0        360       5387   tim.o
        84         14          0          5          0        745   track.o
       156         22          0          0         64       1550   usart.o
      3202       1354         40         28         60       7511   usmart.o
         0          0        108        276          0       1400   usmart_config.o
      1400         20          0          0          0       8641   usmart_str.o
       228         30          0          7        264       3514   z_usart.o

    ----------------------------------------------------------------------
     15216       1988        588        328       1776     496537   Object Totals
         0          0         32          0          0          0   (incl. Generated)
        22          0          0          4          4          0   (incl. Padding)

    ----------------------------------------------------------------------

      Code (inc. data)   RO Data    RW Data    ZI Data      Debug   Library Member Name

        86          0          0          0          0          0   __dczerorl2.o
         0          0          0          0          0          0   entry.o
         0          0          0          0          0          0   entry10a.o
         0          0          0          0          0          0   entry11a.o
         8          4          0          0          0          0   entry2.o
         4          0          0          0          0          0   entry5.o
         0          0          0          0          0          0   entry7b.o
         0          0          0          0          0          0   entry8b.o
         8          4          0          0          0          0   entry9a.o
        30          0          0          0          0          0   handlers.o
        36          8          0          0          0         68   init.o
        30          0          0          0          0         68   llshl.o
        32          0          0          0          0         68   llushr.o
      1154         54          0          0          0        352   printf8.o
        98          0          0          0          0         92   uldiv.o

    ----------------------------------------------------------------------
      1492         70          0          0          0        648   Library Totals
         6          0          0          0          0          0   (incl. Padding)

    ----------------------------------------------------------------------

      Code (inc. data)   RO Data    RW Data    ZI Data      Debug   Library Name

      1486         70          0          0          0        648   mc_w.l

    ----------------------------------------------------------------------
      1492         70          0          0          0        648   Library Totals

    ----------------------------------------------------------------------

==============================================================================


      Code (inc. data)   RO Data    RW Data    ZI Data      Debug   

     16708       2058        588        328       1776     484709   Grand Totals
     16708       2058        588         76       1776     484709   ELF Image Totals (compressed)
     16708       2058        588         76          0          0   ROM Totals

==============================================================================

    Total RO  Size (Code + RO Data)                17296 (  16.89kB)
    Total RW  Size (RW Data + ZI Data)              2104 (   2.05kB)
    Total ROM Size (Code + RO Data + RW Data)      17372 (  16.96kB)

==============================================================================

